{
  "address": "0x525B9d5BD8D778eDFB2128834305d8a89582d533",
  "abi": [
    {
      "inputs": [],
      "stateMutability": "nonpayable",
      "type": "constructor"
    },
    {
      "inputs": [],
      "name": "CustomDex__InsufficientFunds",
      "type": "error"
    },
    {
      "inputs": [],
      "name": "getEthBalance",
      "outputs": [
        {
          "internalType": "uint256",
          "name": "",
          "type": "uint256"
        }
      ],
      "stateMutability": "view",
      "type": "function"
    },
    {
      "inputs": [
        {
          "internalType": "string",
          "name": "tokenSymbol",
          "type": "string"
        }
      ],
      "name": "getTokenAddress",
      "outputs": [
        {
          "internalType": "address",
          "name": "",
          "type": "address"
        }
      ],
      "stateMutability": "view",
      "type": "function"
    },
    {
      "inputs": [
        {
          "internalType": "string",
          "name": "tokenSymbol",
          "type": "string"
        },
        {
          "internalType": "address",
          "name": "user",
          "type": "address"
        }
      ],
      "name": "getTokenBalance",
      "outputs": [
        {
          "internalType": "uint256",
          "name": "",
          "type": "uint256"
        }
      ],
      "stateMutability": "view",
      "type": "function"
    },
    {
      "inputs": [
        {
          "internalType": "string",
          "name": "tokenSymbol",
          "type": "string"
        }
      ],
      "name": "getTokenName",
      "outputs": [
        {
          "internalType": "string",
          "name": "",
          "type": "string"
        }
      ],
      "stateMutability": "view",
      "type": "function"
    },
    {
      "inputs": [
        {
          "internalType": "string",
          "name": "tokenSymbol",
          "type": "string"
        }
      ],
      "name": "getTokenSupply",
      "outputs": [
        {
          "internalType": "uint256",
          "name": "",
          "type": "uint256"
        }
      ],
      "stateMutability": "view",
      "type": "function"
    },
    {
      "inputs": [],
      "name": "getTransactionHistory",
      "outputs": [
        {
          "components": [
            {
              "internalType": "uint256",
              "name": "id",
              "type": "uint256"
            },
            {
              "internalType": "string",
              "name": "tokenA",
              "type": "string"
            },
            {
              "internalType": "string",
              "name": "tokenB",
              "type": "string"
            },
            {
              "internalType": "uint256",
              "name": "inputValue",
              "type": "uint256"
            },
            {
              "internalType": "uint256",
              "name": "outputValue",
              "type": "uint256"
            },
            {
              "internalType": "address",
              "name": "user",
              "type": "address"
            }
          ],
          "internalType": "struct CustomDex.Transaction[]",
          "name": "",
          "type": "tuple[]"
        }
      ],
      "stateMutability": "view",
      "type": "function"
    },
    {
      "inputs": [
        {
          "internalType": "string",
          "name": "tokenSymbol",
          "type": "string"
        }
      ],
      "name": "swapEthToToken",
      "outputs": [
        {
          "internalType": "uint256",
          "name": "",
          "type": "uint256"
        }
      ],
      "stateMutability": "payable",
      "type": "function"
    },
    {
      "inputs": [
        {
          "internalType": "string",
          "name": "tokenSymbol",
          "type": "string"
        },
        {
          "internalType": "uint256",
          "name": "amount",
          "type": "uint256"
        }
      ],
      "name": "swapTokenToEth",
      "outputs": [
        {
          "internalType": "uint256",
          "name": "",
          "type": "uint256"
        }
      ],
      "stateMutability": "nonpayable",
      "type": "function"
    },
    {
      "inputs": [
        {
          "internalType": "string",
          "name": "tokenA",
          "type": "string"
        },
        {
          "internalType": "string",
          "name": "tokenB",
          "type": "string"
        },
        {
          "internalType": "uint256",
          "name": "amount",
          "type": "uint256"
        }
      ],
      "name": "swapTokenToToken",
      "outputs": [],
      "stateMutability": "nonpayable",
      "type": "function"
    },
    {
      "inputs": [
        {
          "internalType": "uint256",
          "name": "",
          "type": "uint256"
        }
      ],
      "name": "tokenNames",
      "outputs": [
        {
          "internalType": "string",
          "name": "",
          "type": "string"
        }
      ],
      "stateMutability": "view",
      "type": "function"
    },
    {
      "inputs": [
        {
          "internalType": "uint256",
          "name": "",
          "type": "uint256"
        }
      ],
      "name": "tokenSymbols",
      "outputs": [
        {
          "internalType": "string",
          "name": "",
          "type": "string"
        }
      ],
      "stateMutability": "view",
      "type": "function"
    },
    {
      "inputs": [
        {
          "internalType": "string",
          "name": "",
          "type": "string"
        }
      ],
      "name": "tokenToInstance",
      "outputs": [
        {
          "internalType": "contract ERC20",
          "name": "",
          "type": "address"
        }
      ],
      "stateMutability": "view",
      "type": "function"
    },
    {
      "inputs": [],
      "name": "transactionIndex",
      "outputs": [
        {
          "internalType": "uint256",
          "name": "",
          "type": "uint256"
        }
      ],
      "stateMutability": "view",
      "type": "function"
    }
  ],
  "transactionHash": "0x01e04e082918d6f0f9189f8fde04d91c0d26876bc21fd5d3f086b350778439c4",
  "args": [],
  "numDeployments": 1,
  "solcInputHash": "9647382d4396a01246c8d3064a4fce2b",
  "bytecode": "0x60806040526040518061010001604052806040518060400160405280600a81526020017f546574686572205553440000000000000000000000000000000000000000000081525081526020016040518060400160405280600c81526020017f42696e616e636520436f696e000000000000000000000000000000000000000081525081526020016040518060400160405280600881526020017f55534420436f696e00000000000000000000000000000000000000000000000081525081526020016040518060400160405280600481526020017f54726f6e0000000000000000000000000000000000000000000000000000000081525081526020016040518060400160405280600581526020017f4d6174696300000000000000000000000000000000000000000000000000000081525081526020016040518060400160405280600881526020017f457468657265756d00000000000000000000000000000000000000000000000081525081526020016040518060400160405280600781526020017f426974636f696e0000000000000000000000000000000000000000000000000081525081526020016040518060400160405280600881526020017f506f6c6b61646f740000000000000000000000000000000000000000000000008152508152505f906008620001f79291906200051d565b506040518061010001604052806040518060400160405280600481526020017f555344540000000000000000000000000000000000000000000000000000000081525081526020016040518060400160405280600381526020017f424e42000000000000000000000000000000000000000000000000000000000081525081526020016040518060400160405280600481526020017f555344430000000000000000000000000000000000000000000000000000000081525081526020016040518060400160405280600381526020017f545258000000000000000000000000000000000000000000000000000000000081525081526020016040518060400160405280600581526020017f4d4154494300000000000000000000000000000000000000000000000000000081525081526020016040518060400160405280600381526020017f455448000000000000000000000000000000000000000000000000000000000081525081526020016040518060400160405280600381526020017f425443000000000000000000000000000000000000000000000000000000000081525081526020016040518060400160405280600381526020017f444f5400000000000000000000000000000000000000000000000000000000008152508152506001906008620003ec9291906200051d565b50670de0b6b3a764000060035534801562000405575f80fd5b505f5b5f8054905081101562000516575f8082815481106200042c576200042b62000610565b5b905f5260205f2001600183815481106200044b576200044a62000610565b5b905f5260205f200160405162000461906200057b565b6200046e9291906200074d565b604051809103905ff08015801562000488573d5f803e3d5ffd5b50905080600260018481548110620004a557620004a462000610565b5b905f5260205f2001604051620004bc91906200081c565b90815260200160405180910390205f6101000a81548173ffffffffffffffffffffffffffffffffffffffff021916908373ffffffffffffffffffffffffffffffffffffffff16021790555050808060010191505062000408565b5062000b09565b828054828255905f5260205f2090810192821562000568579160200282015b828111156200056757825182908162000556919062000a25565b50916020019190600101906200053c565b5b50905062000577919062000589565b5090565b6117888062002a5683390190565b5b80821115620005ac575f8181620005a29190620005b0565b506001016200058a565b5090565b508054620005be906200066a565b5f825580601f10620005d15750620005f0565b601f0160209004905f5260205f2090810190620005ef9190620005f3565b5b50565b5b808211156200060c575f815f905550600101620005f4565b5090565b7f4e487b71000000000000000000000000000000000000000000000000000000005f52603260045260245ffd5b7f4e487b71000000000000000000000000000000000000000000000000000000005f52602260045260245ffd5b5f60028204905060018216806200068257607f821691505b6020821081036200069857620006976200063d565b5b50919050565b5f82825260208201905092915050565b5f819050815f5260205f209050919050565b5f8154620006ce816200066a565b620006da81866200069e565b9450600182165f8114620006f757600181146200070e5762000744565b60ff19831686528115156020028601935062000744565b6200071985620006ae565b5f5b838110156200073c578154818901526001820191506020810190506200071b565b808801955050505b50505092915050565b5f6040820190508181035f830152620007678185620006c0565b905081810360208301526200077d8184620006c0565b90509392505050565b5f81905092915050565b5f81546200079e816200066a565b620007aa818662000786565b9450600182165f8114620007c75760018114620007dd5762000813565b60ff198316865281151582028601935062000813565b620007e885620006ae565b5f5b838110156200080b57815481890152600182019150602081019050620007ea565b838801955050505b50505092915050565b5f62000829828462000790565b915081905092915050565b5f81519050919050565b7f4e487b71000000000000000000000000000000000000000000000000000000005f52604160045260245ffd5b5f6020601f8301049050919050565b5f82821b905092915050565b5f60088302620008b77fffffffffffffffffffffffffffffffffffffffffffffffffffffffffffffffff826200087a565b620008c386836200087a565b95508019841693508086168417925050509392505050565b5f819050919050565b5f819050919050565b5f6200090d620009076200090184620008db565b620008e4565b620008db565b9050919050565b5f819050919050565b6200092883620008ed565b62000940620009378262000914565b84845462000886565b825550505050565b5f90565b6200095662000948565b620009638184846200091d565b505050565b5b818110156200098a576200097e5f826200094c565b60018101905062000969565b5050565b601f821115620009d957620009a381620006ae565b620009ae846200086b565b81016020851015620009be578190505b620009d6620009cd856200086b565b83018262000968565b50505b505050565b5f82821c905092915050565b5f620009fb5f1984600802620009de565b1980831691505092915050565b5f62000a158383620009ea565b9150826002028217905092915050565b62000a308262000834565b67ffffffffffffffff81111562000a4c5762000a4b6200083e565b5b62000a5882546200066a565b62000a658282856200098e565b5f60209050601f83116001811462000a9b575f841562000a86578287015190505b62000a92858262000a08565b86555062000b01565b601f19841662000aab86620006ae565b5f5b8281101562000ad45784890151825560018201915060208501945060208101905062000aad565b8683101562000af4578489015162000af0601f891682620009ea565b8355505b6001600288020188555050505b505050505050565b611f3f8062000b175f395ff3fe6080604052600436106100c1575f3560e01c80638cd93e8c1161007e578063b8220f6a11610058578063b8220f6a146102b1578063bf015aae146102db578063c409123614610303578063db6f63ee1461033f576100c1565b80638cd93e8c1461020f578063a0776a591461024b578063b76d4fc314610287576100c1565b8063310495ab146100c55780633cdb9762146101015780635f88c7181461013d57806363fcf7c5146101795780636e7ddea8146101a957806370ed0ada146101e5575b5f80fd5b3480156100d0575f80fd5b506100eb60048036038101906100e69190611138565b61037b565b6040516100f891906111ed565b60405180910390f35b34801561010c575f80fd5b5061012760048036038101906101229190611393565b610420565b60405161013491906113fc565b60405180910390f35b348015610148575f80fd5b50610163600480360381019061015e9190611415565b6104de565b60405161017091906114b7565b60405180910390f35b610193600480360381019061018e9190611415565b610526565b6040516101a091906113fc565b60405180910390f35b3480156101b4575f80fd5b506101cf60048036038101906101ca9190611138565b610696565b6040516101dc91906111ed565b60405180910390f35b3480156101f0575f80fd5b506101f961073c565b60405161020691906113fc565b60405180910390f35b34801561021a575f80fd5b5061023560048036038101906102309190611415565b610743565b60405161024291906111ed565b60405180910390f35b348015610256575f80fd5b50610271600480360381019061026c9190611415565b6107f9565b60405161027e91906113fc565b60405180910390f35b348015610292575f80fd5b5061029b6108ab565b6040516102a8919061167e565b60405180910390f35b3480156102bc575f80fd5b506102c5610af6565b6040516102d291906113fc565b60405180910390f35b3480156102e6575f80fd5b5061030160048036038101906102fc919061169e565b610afc565b005b34801561030e575f80fd5b5061032960048036038101906103249190611415565b610cfd565b6040516103369190611735565b60405180910390f35b34801561034a575f80fd5b506103656004803603810190610360919061174e565b610d43565b60405161037291906113fc565b60405180910390f35b5f8181548110610389575f80fd5b905f5260205f20015f9150905080546103a1906117d5565b80601f01602080910402602001604051908101604052809291908181526020018280546103cd906117d5565b80156104185780601f106103ef57610100808354040283529160200191610418565b820191905f5260205f20905b8154815290600101906020018083116103fb57829003601f168201915b505050505081565b5f600283604051610431919061183f565b90815260200160405180910390205f9054906101000a900473ffffffffffffffffffffffffffffffffffffffff1673ffffffffffffffffffffffffffffffffffffffff166370a08231836040518263ffffffff1660e01b81526004016104979190611735565b602060405180830381865afa1580156104b2573d5f803e3d5ffd5b505050506040513d601f19601f820116820180604052508101906104d69190611869565b905092915050565b6002818051602081018201805184825260208301602085012081835280955050505050505f915054906101000a900473ffffffffffffffffffffffffffffffffffffffff1681565b5f803490505f670de0b6b3a76400006003548361054391906118ee565b61054d919061191e565b905060028460405161055f919061183f565b90815260200160405180910390205f9054906101000a900473ffffffffffffffffffffffffffffffffffffffff1673ffffffffffffffffffffffffffffffffffffffff1663a9059cbb33836040518363ffffffff1660e01b81526004016105c792919061195f565b6020604051808303815f875af11580156105e3573d5f803e3d5ffd5b505050506040513d601f19601f8201168201806040525081019061060791906119bb565b610646576040517f08c379a000000000000000000000000000000000000000000000000000000000815260040161063d90611a30565b60405180910390fd5b5f6040518060400160405280600381526020017f4554480000000000000000000000000000000000000000000000000000000000815250905061068b85828585610f33565b819350505050919050565b600181815481106106a5575f80fd5b905f5260205f20015f9150905080546106bd906117d5565b80601f01602080910402602001604051908101604052809291908181526020018280546106e9906117d5565b80156107345780601f1061070b57610100808354040283529160200191610734565b820191905f5260205f20905b81548152906001019060200180831161071757829003601f168201915b505050505081565b5f47905090565b6060600282604051610755919061183f565b90815260200160405180910390205f9054906101000a900473ffffffffffffffffffffffffffffffffffffffff1673ffffffffffffffffffffffffffffffffffffffff166306fdde036040518163ffffffff1660e01b81526004015f60405180830381865afa1580156107ca573d5f803e3d5ffd5b505050506040513d5f823e3d601f19601f820116820180604052508101906107f29190611abc565b9050919050565b5f60028260405161080a919061183f565b90815260200160405180910390205f9054906101000a900473ffffffffffffffffffffffffffffffffffffffff1673ffffffffffffffffffffffffffffffffffffffff166318160ddd6040518163ffffffff1660e01b8152600401602060405180830381865afa158015610880573d5f803e3d5ffd5b505050506040513d601f19601f820116820180604052508101906108a49190611869565b9050919050565b60605f60045490505f8167ffffffffffffffff8111156108ce576108cd611215565b5b60405190808252806020026020018201604052801561090757816020015b6108f46110ac565b8152602001906001900390816108ec5790505b5090505f5b82811015610aed5760055f8281526020019081526020015f206040518060c00160405290815f8201548152602001600182018054610949906117d5565b80601f0160208091040260200160405190810160405280929190818152602001828054610975906117d5565b80156109c05780601f10610997576101008083540402835291602001916109c0565b820191905f5260205f20905b8154815290600101906020018083116109a357829003601f168201915b505050505081526020016002820180546109d9906117d5565b80601f0160208091040260200160405190810160405280929190818152602001828054610a05906117d5565b8015610a505780601f10610a2757610100808354040283529160200191610a50565b820191905f5260205f20905b815481529060010190602001808311610a3357829003601f168201915b505050505081526020016003820154815260200160048201548152602001600582015f9054906101000a900473ffffffffffffffffffffffffffffffffffffffff1673ffffffffffffffffffffffffffffffffffffffff1673ffffffffffffffffffffffffffffffffffffffff1681525050828281518110610ad557610ad4611b03565b5b6020026020010181905250808060010191505061090c565b50809250505090565b60045481565b600283604051610b0c919061183f565b90815260200160405180910390205f9054906101000a900473ffffffffffffffffffffffffffffffffffffffff1673ffffffffffffffffffffffffffffffffffffffff166323b872dd3330846040518463ffffffff1660e01b8152600401610b7693929190611b30565b6020604051808303815f875af1158015610b92573d5f803e3d5ffd5b505050506040513d601f19601f82011682018060405250810190610bb691906119bb565b610bf5576040517f08c379a0000000000000000000000000000000000000000000000000000000008152600401610bec90611a30565b60405180910390fd5b600282604051610c05919061183f565b90815260200160405180910390205f9054906101000a900473ffffffffffffffffffffffffffffffffffffffff1673ffffffffffffffffffffffffffffffffffffffff1663a9059cbb33836040518363ffffffff1660e01b8152600401610c6d92919061195f565b6020604051808303815f875af1158015610c89573d5f803e3d5ffd5b505050506040513d601f19601f82011682018060405250810190610cad91906119bb565b610cec576040517f08c379a0000000000000000000000000000000000000000000000000000000008152600401610ce390611a30565b60405180910390fd5b610cf883838384610f33565b505050565b5f600282604051610d0e919061183f565b90815260200160405180910390205f9054906101000a900473ffffffffffffffffffffffffffffffffffffffff169050919050565b5f80670de0b6b3a764000083610d5991906118ee565b90505f60035482610d6a919061191e565b9050804710610da5576040517f2f1ed4f400000000000000000000000000000000000000000000000000000000815260040160405180910390fd5b3373ffffffffffffffffffffffffffffffffffffffff166108fc8290811502906040515f60405180830381858888f19350505050158015610de8573d5f803e3d5ffd5b50600285604051610df9919061183f565b90815260200160405180910390205f9054906101000a900473ffffffffffffffffffffffffffffffffffffffff1673ffffffffffffffffffffffffffffffffffffffff166323b872dd3330876040518463ffffffff1660e01b8152600401610e6393929190611b30565b6020604051808303815f875af1158015610e7f573d5f803e3d5ffd5b505050506040513d601f19601f82011682018060405250810190610ea391906119bb565b610ee2576040517f08c379a0000000000000000000000000000000000000000000000000000000008152600401610ed990611a30565b60405180910390fd5b5f6040518060400160405280600381526020017f45544800000000000000000000000000000000000000000000000000000000008152509050610f2786828585610f33565b81935050505092915050565b60045f815480929190610f4590611b65565b91905055505f60045490505f60055f8381526020019081526020015f20905081815f018190555085816001019081610f7d9190611d40565b5084816002019081610f8f9190611d40565b5083816003018190555082816004018190555033816005015f6101000a81548173ffffffffffffffffffffffffffffffffffffffff021916908373ffffffffffffffffffffffffffffffffffffffff1602179055508060055f8481526020019081526020015f205f820154815f0155600182018160010190816110129190611e24565b50600282018160020190816110279190611e24565b506003820154816003015560048201548160040155600582015f9054906101000a900473ffffffffffffffffffffffffffffffffffffffff16816005015f6101000a81548173ffffffffffffffffffffffffffffffffffffffff021916908373ffffffffffffffffffffffffffffffffffffffff160217905550905050505050505050565b6040518060c001604052805f815260200160608152602001606081526020015f81526020015f81526020015f73ffffffffffffffffffffffffffffffffffffffff1681525090565b5f604051905090565b5f80fd5b5f80fd5b5f819050919050565b61111781611105565b8114611121575f80fd5b50565b5f813590506111328161110e565b92915050565b5f6020828403121561114d5761114c6110fd565b5b5f61115a84828501611124565b91505092915050565b5f81519050919050565b5f82825260208201905092915050565b5f5b8381101561119a57808201518184015260208101905061117f565b5f8484015250505050565b5f601f19601f8301169050919050565b5f6111bf82611163565b6111c9818561116d565b93506111d981856020860161117d565b6111e2816111a5565b840191505092915050565b5f6020820190508181035f83015261120581846111b5565b905092915050565b5f80fd5b5f80fd5b7f4e487b71000000000000000000000000000000000000000000000000000000005f52604160045260245ffd5b61124b826111a5565b810181811067ffffffffffffffff8211171561126a57611269611215565b5b80604052505050565b5f61127c6110f4565b90506112888282611242565b919050565b5f67ffffffffffffffff8211156112a7576112a6611215565b5b6112b0826111a5565b9050602081019050919050565b828183375f83830152505050565b5f6112dd6112d88461128d565b611273565b9050828152602081018484840111156112f9576112f8611211565b5b6113048482856112bd565b509392505050565b5f82601f8301126113205761131f61120d565b5b81356113308482602086016112cb565b91505092915050565b5f73ffffffffffffffffffffffffffffffffffffffff82169050919050565b5f61136282611339565b9050919050565b61137281611358565b811461137c575f80fd5b50565b5f8135905061138d81611369565b92915050565b5f80604083850312156113a9576113a86110fd565b5b5f83013567ffffffffffffffff8111156113c6576113c5611101565b5b6113d28582860161130c565b92505060206113e38582860161137f565b9150509250929050565b6113f681611105565b82525050565b5f60208201905061140f5f8301846113ed565b92915050565b5f6020828403121561142a576114296110fd565b5b5f82013567ffffffffffffffff81111561144757611446611101565b5b6114538482850161130c565b91505092915050565b5f819050919050565b5f61147f61147a61147584611339565b61145c565b611339565b9050919050565b5f61149082611465565b9050919050565b5f6114a182611486565b9050919050565b6114b181611497565b82525050565b5f6020820190506114ca5f8301846114a8565b92915050565b5f81519050919050565b5f82825260208201905092915050565b5f819050602082019050919050565b61150281611105565b82525050565b5f82825260208201905092915050565b5f61152282611163565b61152c8185611508565b935061153c81856020860161117d565b611545816111a5565b840191505092915050565b61155981611358565b82525050565b5f60c083015f8301516115745f8601826114f9565b506020830151848203602086015261158c8282611518565b915050604083015184820360408601526115a68282611518565b91505060608301516115bb60608601826114f9565b5060808301516115ce60808601826114f9565b5060a08301516115e160a0860182611550565b508091505092915050565b5f6115f7838361155f565b905092915050565b5f602082019050919050565b5f611615826114d0565b61161f81856114da565b935083602082028501611631856114ea565b805f5b8581101561166c578484038952815161164d85826115ec565b9450611658836115ff565b925060208a01995050600181019050611634565b50829750879550505050505092915050565b5f6020820190508181035f830152611696818461160b565b905092915050565b5f805f606084860312156116b5576116b46110fd565b5b5f84013567ffffffffffffffff8111156116d2576116d1611101565b5b6116de8682870161130c565b935050602084013567ffffffffffffffff8111156116ff576116fe611101565b5b61170b8682870161130c565b925050604061171c86828701611124565b9150509250925092565b61172f81611358565b82525050565b5f6020820190506117485f830184611726565b92915050565b5f8060408385031215611764576117636110fd565b5b5f83013567ffffffffffffffff81111561178157611780611101565b5b61178d8582860161130c565b925050602061179e85828601611124565b9150509250929050565b7f4e487b71000000000000000000000000000000000000000000000000000000005f52602260045260245ffd5b5f60028204905060018216806117ec57607f821691505b6020821081036117ff576117fe6117a8565b5b50919050565b5f81905092915050565b5f61181982611163565b6118238185611805565b935061183381856020860161117d565b80840191505092915050565b5f61184a828461180f565b915081905092915050565b5f815190506118638161110e565b92915050565b5f6020828403121561187e5761187d6110fd565b5b5f61188b84828501611855565b91505092915050565b7f4e487b71000000000000000000000000000000000000000000000000000000005f52601260045260245ffd5b7f4e487b71000000000000000000000000000000000000000000000000000000005f52601160045260245ffd5b5f6118f882611105565b915061190383611105565b92508261191357611912611894565b5b828204905092915050565b5f61192882611105565b915061193383611105565b925082820261194181611105565b91508282048414831517611958576119576118c1565b5b5092915050565b5f6040820190506119725f830185611726565b61197f60208301846113ed565b9392505050565b5f8115159050919050565b61199a81611986565b81146119a4575f80fd5b50565b5f815190506119b581611991565b92915050565b5f602082840312156119d0576119cf6110fd565b5b5f6119dd848285016119a7565b91505092915050565b7f5472616e73666572206661696c656400000000000000000000000000000000005f82015250565b5f611a1a600f8361116d565b9150611a25826119e6565b602082019050919050565b5f6020820190508181035f830152611a4781611a0e565b9050919050565b5f611a60611a5b8461128d565b611273565b905082815260208101848484011115611a7c57611a7b611211565b5b611a8784828561117d565b509392505050565b5f82601f830112611aa357611aa261120d565b5b8151611ab3848260208601611a4e565b91505092915050565b5f60208284031215611ad157611ad06110fd565b5b5f82015167ffffffffffffffff811115611aee57611aed611101565b5b611afa84828501611a8f565b91505092915050565b7f4e487b71000000000000000000000000000000000000000000000000000000005f52603260045260245ffd5b5f606082019050611b435f830186611726565b611b506020830185611726565b611b5d60408301846113ed565b949350505050565b5f611b6f82611105565b91507fffffffffffffffffffffffffffffffffffffffffffffffffffffffffffffffff8203611ba157611ba06118c1565b5b600182019050919050565b5f819050815f5260205f209050919050565b5f6020601f8301049050919050565b5f82821b905092915050565b5f60088302611c087fffffffffffffffffffffffffffffffffffffffffffffffffffffffffffffffff82611bcd565b611c128683611bcd565b95508019841693508086168417925050509392505050565b5f611c44611c3f611c3a84611105565b61145c565b611105565b9050919050565b5f819050919050565b611c5d83611c2a565b611c71611c6982611c4b565b848454611bd9565b825550505050565b5f90565b611c85611c79565b611c90818484611c54565b505050565b5b81811015611cb357611ca85f82611c7d565b600181019050611c96565b5050565b601f821115611cf857611cc981611bac565b611cd284611bbe565b81016020851015611ce1578190505b611cf5611ced85611bbe565b830182611c95565b50505b505050565b5f82821c905092915050565b5f611d185f1984600802611cfd565b1980831691505092915050565b5f611d308383611d09565b9150826002028217905092915050565b611d4982611163565b67ffffffffffffffff811115611d6257611d61611215565b5b611d6c82546117d5565b611d77828285611cb7565b5f60209050601f831160018114611da8575f8415611d96578287015190505b611da08582611d25565b865550611e07565b601f198416611db686611bac565b5f5b82811015611ddd57848901518255600182019150602085019450602081019050611db8565b86831015611dfa5784890151611df6601f891682611d09565b8355505b6001600288020188555050505b505050505050565b5f81549050611e1d816117d5565b9050919050565b818103611e32575050611f07565b611e3b82611e0f565b67ffffffffffffffff811115611e5457611e53611215565b5b611e5e82546117d5565b611e69828285611cb7565b5f601f831160018114611e96575f8415611e84578287015490505b611e8e8582611d25565b865550611f00565b601f198416611ea487611bac565b9650611eaf86611bac565b5f5b82811015611ed657848901548255600182019150600185019450602081019050611eb1565b86831015611ef35784890154611eef601f891682611d09565b8355505b6001600288020188555050505b5050505050505b56fea264697066735822122020c56e56d506eedb9ad76d4304369486fabd4761cb07d81c901c770ab4279bda64736f6c63430008180033608060405234801562000010575f80fd5b5060405162001788380380620017888339818101604052810190620000369190620004b5565b818181600390816200004991906200076f565b5080600490816200005b91906200076f565b5050506200007a3369d3c21bcecceda10000006200008260201b60201c565b50506200097f565b5f73ffffffffffffffffffffffffffffffffffffffff168273ffffffffffffffffffffffffffffffffffffffff1603620000f5575f6040517fec442f05000000000000000000000000000000000000000000000000000000008152600401620000ec919062000896565b60405180910390fd5b620001085f83836200010c60201b60201c565b5050565b5f73ffffffffffffffffffffffffffffffffffffffff168373ffffffffffffffffffffffffffffffffffffffff160362000160578060025f828254620001539190620008de565b9250508190555062000231565b5f805f8573ffffffffffffffffffffffffffffffffffffffff1673ffffffffffffffffffffffffffffffffffffffff1681526020019081526020015f2054905081811015620001ec578381836040517fe450d38c000000000000000000000000000000000000000000000000000000008152600401620001e39392919062000929565b60405180910390fd5b8181035f808673ffffffffffffffffffffffffffffffffffffffff1673ffffffffffffffffffffffffffffffffffffffff1681526020019081526020015f2081905550505b5f73ffffffffffffffffffffffffffffffffffffffff168273ffffffffffffffffffffffffffffffffffffffff16036200027a578060025f8282540392505081905550620002c4565b805f808473ffffffffffffffffffffffffffffffffffffffff1673ffffffffffffffffffffffffffffffffffffffff1681526020019081526020015f205f82825401925050819055505b8173ffffffffffffffffffffffffffffffffffffffff168373ffffffffffffffffffffffffffffffffffffffff167fddf252ad1be2c89b69c2b068fc378daa952ba7f163c4a11628f55a4df523b3ef8360405162000323919062000964565b60405180910390a3505050565b5f604051905090565b5f80fd5b5f80fd5b5f80fd5b5f80fd5b5f601f19601f8301169050919050565b7f4e487b71000000000000000000000000000000000000000000000000000000005f52604160045260245ffd5b620003918262000349565b810181811067ffffffffffffffff82111715620003b357620003b262000359565b5b80604052505050565b5f620003c762000330565b9050620003d5828262000386565b919050565b5f67ffffffffffffffff821115620003f757620003f662000359565b5b620004028262000349565b9050602081019050919050565b5f5b838110156200042e57808201518184015260208101905062000411565b5f8484015250505050565b5f6200044f6200044984620003da565b620003bc565b9050828152602081018484840111156200046e576200046d62000345565b5b6200047b8482856200040f565b509392505050565b5f82601f8301126200049a576200049962000341565b5b8151620004ac84826020860162000439565b91505092915050565b5f8060408385031215620004ce57620004cd62000339565b5b5f83015167ffffffffffffffff811115620004ee57620004ed6200033d565b5b620004fc8582860162000483565b925050602083015167ffffffffffffffff81111562000520576200051f6200033d565b5b6200052e8582860162000483565b9150509250929050565b5f81519050919050565b7f4e487b71000000000000000000000000000000000000000000000000000000005f52602260045260245ffd5b5f60028204905060018216806200058757607f821691505b6020821081036200059d576200059c62000542565b5b50919050565b5f819050815f5260205f209050919050565b5f6020601f8301049050919050565b5f82821b905092915050565b5f60088302620006017fffffffffffffffffffffffffffffffffffffffffffffffffffffffffffffffff82620005c4565b6200060d8683620005c4565b95508019841693508086168417925050509392505050565b5f819050919050565b5f819050919050565b5f62000657620006516200064b8462000625565b6200062e565b62000625565b9050919050565b5f819050919050565b620006728362000637565b6200068a62000681826200065e565b848454620005d0565b825550505050565b5f90565b620006a062000692565b620006ad81848462000667565b505050565b5b81811015620006d457620006c85f8262000696565b600181019050620006b3565b5050565b601f8211156200072357620006ed81620005a3565b620006f884620005b5565b8101602085101562000708578190505b620007206200071785620005b5565b830182620006b2565b50505b505050565b5f82821c905092915050565b5f620007455f198460080262000728565b1980831691505092915050565b5f6200075f838362000734565b9150826002028217905092915050565b6200077a8262000538565b67ffffffffffffffff81111562000796576200079562000359565b5b620007a282546200056f565b620007af828285620006d8565b5f60209050601f831160018114620007e5575f8415620007d0578287015190505b620007dc858262000752565b8655506200084b565b601f198416620007f586620005a3565b5f5b828110156200081e57848901518255600182019150602085019450602081019050620007f7565b868310156200083e57848901516200083a601f89168262000734565b8355505b6001600288020188555050505b505050505050565b5f73ffffffffffffffffffffffffffffffffffffffff82169050919050565b5f6200087e8262000853565b9050919050565b620008908162000872565b82525050565b5f602082019050620008ab5f83018462000885565b92915050565b7f4e487b71000000000000000000000000000000000000000000000000000000005f52601160045260245ffd5b5f620008ea8262000625565b9150620008f78362000625565b9250828201905080821115620009125762000911620008b1565b5b92915050565b620009238162000625565b82525050565b5f6060820190506200093e5f83018662000885565b6200094d602083018562000918565b6200095c604083018462000918565b949350505050565b5f602082019050620009795f83018462000918565b92915050565b610dfb806200098d5f395ff3fe608060405234801561000f575f80fd5b5060043610610091575f3560e01c8063313ce56711610064578063313ce5671461013157806370a082311461014f57806395d89b411461017f578063a9059cbb1461019d578063dd62ed3e146101cd57610091565b806306fdde0314610095578063095ea7b3146100b357806318160ddd146100e357806323b872dd14610101575b5f80fd5b61009d6101fd565b6040516100aa9190610a74565b60405180910390f35b6100cd60048036038101906100c89190610b25565b61028d565b6040516100da9190610b7d565b60405180910390f35b6100eb6102af565b6040516100f89190610ba5565b60405180910390f35b61011b60048036038101906101169190610bbe565b6102b8565b6040516101289190610b7d565b60405180910390f35b6101396102e6565b6040516101469190610c29565b60405180910390f35b61016960048036038101906101649190610c42565b6102ee565b6040516101769190610ba5565b60405180910390f35b610187610333565b6040516101949190610a74565b60405180910390f35b6101b760048036038101906101b29190610b25565b6103c3565b6040516101c49190610b7d565b60405180910390f35b6101e760048036038101906101e29190610c6d565b6103e5565b6040516101f49190610ba5565b60405180910390f35b60606003805461020c90610cd8565b80601f016020809104026020016040519081016040528092919081815260200182805461023890610cd8565b80156102835780601f1061025a57610100808354040283529160200191610283565b820191905f5260205f20905b81548152906001019060200180831161026657829003601f168201915b5050505050905090565b5f80610297610467565b90506102a481858561046e565b600191505092915050565b5f600254905090565b5f806102c2610467565b90506102cf858285610480565b6102da858585610512565b60019150509392505050565b5f6012905090565b5f805f8373ffffffffffffffffffffffffffffffffffffffff1673ffffffffffffffffffffffffffffffffffffffff1681526020019081526020015f20549050919050565b60606004805461034290610cd8565b80601f016020809104026020016040519081016040528092919081815260200182805461036e90610cd8565b80156103b95780601f10610390576101008083540402835291602001916103b9565b820191905f5260205f20905b81548152906001019060200180831161039c57829003601f168201915b5050505050905090565b5f806103cd610467565b90506103da818585610512565b600191505092915050565b5f60015f8473ffffffffffffffffffffffffffffffffffffffff1673ffffffffffffffffffffffffffffffffffffffff1681526020019081526020015f205f8373ffffffffffffffffffffffffffffffffffffffff1673ffffffffffffffffffffffffffffffffffffffff1681526020019081526020015f2054905092915050565b5f33905090565b61047b8383836001610602565b505050565b5f61048b84846103e5565b90507fffffffffffffffffffffffffffffffffffffffffffffffffffffffffffffffff811461050c57818110156104fd578281836040517ffb8f41b20000000000000000000000000000000000000000000000000000000081526004016104f493929190610d17565b60405180910390fd5b61050b84848484035f610602565b5b50505050565b5f73ffffffffffffffffffffffffffffffffffffffff168373ffffffffffffffffffffffffffffffffffffffff1603610582575f6040517f96c6fd1e0000000000000000000000000000000000000000000000000000000081526004016105799190610d4c565b60405180910390fd5b5f73ffffffffffffffffffffffffffffffffffffffff168273ffffffffffffffffffffffffffffffffffffffff16036105f2575f6040517fec442f050000000000000000000000000000000000000000000000000000000081526004016105e99190610d4c565b60405180910390fd5b6105fd8383836107d1565b505050565b5f73ffffffffffffffffffffffffffffffffffffffff168473ffffffffffffffffffffffffffffffffffffffff1603610672575f6040517fe602df050000000000000000000000000000000000000000000000000000000081526004016106699190610d4c565b60405180910390fd5b5f73ffffffffffffffffffffffffffffffffffffffff168373ffffffffffffffffffffffffffffffffffffffff16036106e2575f6040517f94280d620000000000000000000000000000000000000000000000000000000081526004016106d99190610d4c565b60405180910390fd5b8160015f8673ffffffffffffffffffffffffffffffffffffffff1673ffffffffffffffffffffffffffffffffffffffff1681526020019081526020015f205f8573ffffffffffffffffffffffffffffffffffffffff1673ffffffffffffffffffffffffffffffffffffffff1681526020019081526020015f208190555080156107cb578273ffffffffffffffffffffffffffffffffffffffff168473ffffffffffffffffffffffffffffffffffffffff167f8c5be1e5ebec7d5bd14f71427d1e84f3dd0314c0f7b2291e5b200ac8c7c3b925846040516107c29190610ba5565b60405180910390a35b50505050565b5f73ffffffffffffffffffffffffffffffffffffffff168373ffffffffffffffffffffffffffffffffffffffff1603610821578060025f8282546108159190610d92565b925050819055506108ef565b5f805f8573ffffffffffffffffffffffffffffffffffffffff1673ffffffffffffffffffffffffffffffffffffffff1681526020019081526020015f20549050818110156108aa578381836040517fe450d38c0000000000000000000000000000000000000000000000000000000081526004016108a193929190610d17565b60405180910390fd5b8181035f808673ffffffffffffffffffffffffffffffffffffffff1673ffffffffffffffffffffffffffffffffffffffff1681526020019081526020015f2081905550505b5f73ffffffffffffffffffffffffffffffffffffffff168273ffffffffffffffffffffffffffffffffffffffff1603610936578060025f8282540392505081905550610980565b805f808473ffffffffffffffffffffffffffffffffffffffff1673ffffffffffffffffffffffffffffffffffffffff1681526020019081526020015f205f82825401925050819055505b8173ffffffffffffffffffffffffffffffffffffffff168373ffffffffffffffffffffffffffffffffffffffff167fddf252ad1be2c89b69c2b068fc378daa952ba7f163c4a11628f55a4df523b3ef836040516109dd9190610ba5565b60405180910390a3505050565b5f81519050919050565b5f82825260208201905092915050565b5f5b83811015610a21578082015181840152602081019050610a06565b5f8484015250505050565b5f601f19601f8301169050919050565b5f610a46826109ea565b610a5081856109f4565b9350610a60818560208601610a04565b610a6981610a2c565b840191505092915050565b5f6020820190508181035f830152610a8c8184610a3c565b905092915050565b5f80fd5b5f73ffffffffffffffffffffffffffffffffffffffff82169050919050565b5f610ac182610a98565b9050919050565b610ad181610ab7565b8114610adb575f80fd5b50565b5f81359050610aec81610ac8565b92915050565b5f819050919050565b610b0481610af2565b8114610b0e575f80fd5b50565b5f81359050610b1f81610afb565b92915050565b5f8060408385031215610b3b57610b3a610a94565b5b5f610b4885828601610ade565b9250506020610b5985828601610b11565b9150509250929050565b5f8115159050919050565b610b7781610b63565b82525050565b5f602082019050610b905f830184610b6e565b92915050565b610b9f81610af2565b82525050565b5f602082019050610bb85f830184610b96565b92915050565b5f805f60608486031215610bd557610bd4610a94565b5b5f610be286828701610ade565b9350506020610bf386828701610ade565b9250506040610c0486828701610b11565b9150509250925092565b5f60ff82169050919050565b610c2381610c0e565b82525050565b5f602082019050610c3c5f830184610c1a565b92915050565b5f60208284031215610c5757610c56610a94565b5b5f610c6484828501610ade565b91505092915050565b5f8060408385031215610c8357610c82610a94565b5b5f610c9085828601610ade565b9250506020610ca185828601610ade565b9150509250929050565b7f4e487b71000000000000000000000000000000000000000000000000000000005f52602260045260245ffd5b5f6002820490506001821680610cef57607f821691505b602082108103610d0257610d01610cab565b5b50919050565b610d1181610ab7565b82525050565b5f606082019050610d2a5f830186610d08565b610d376020830185610b96565b610d446040830184610b96565b949350505050565b5f602082019050610d5f5f830184610d08565b92915050565b7f4e487b71000000000000000000000000000000000000000000000000000000005f52601160045260245ffd5b5f610d9c82610af2565b9150610da783610af2565b9250828201905080821115610dbf57610dbe610d65565b5b9291505056fea26469706673582212207192d8454bec7871ded908b392b7c7b458270532ae273f9898d4c31e240a7fb364736f6c63430008180033",
  "devdoc": {
    "kind": "dev",
    "methods": {},
    "version": 1
  },
  "userdoc": {
    "kind": "user",
    "methods": {},
    "version": 1
  },
  "storageLayout": {
    "storage": [
      {
        "astId": 802,
        "contract": "contracts/CustomDex.sol:CustomDex",
        "label": "tokenNames",
        "offset": 0,
        "slot": "0",
        "type": "t_array(t_string_storage)dyn_storage"
      },
      {
        "astId": 814,
        "contract": "contracts/CustomDex.sol:CustomDex",
        "label": "tokenSymbols",
        "offset": 0,
        "slot": "1",
        "type": "t_array(t_string_storage)dyn_storage"
      },
      {
        "astId": 819,
        "contract": "contracts/CustomDex.sol:CustomDex",
        "label": "tokenToInstance",
        "offset": 0,
        "slot": "2",
        "type": "t_mapping(t_string_memory_ptr,t_contract(ERC20)651)"
      },
      {
        "astId": 822,
        "contract": "contracts/CustomDex.sol:CustomDex",
        "label": "ethValue",
        "offset": 0,
        "slot": "3",
        "type": "t_uint256"
      },
      {
        "astId": 837,
        "contract": "contracts/CustomDex.sol:CustomDex",
        "label": "transactionIndex",
        "offset": 0,
        "slot": "4",
        "type": "t_uint256"
      },
      {
        "astId": 842,
        "contract": "contracts/CustomDex.sol:CustomDex",
        "label": "transactionHistory",
        "offset": 0,
        "slot": "5",
        "type": "t_mapping(t_uint256,t_struct(Transaction)835_storage)"
      }
    ],
    "types": {
      "t_address": {
        "encoding": "inplace",
        "label": "address",
        "numberOfBytes": "20"
      },
      "t_array(t_string_storage)dyn_storage": {
        "base": "t_string_storage",
        "encoding": "dynamic_array",
        "label": "string[]",
        "numberOfBytes": "32"
      },
      "t_contract(ERC20)651": {
        "encoding": "inplace",
        "label": "contract ERC20",
        "numberOfBytes": "20"
      },
      "t_mapping(t_string_memory_ptr,t_contract(ERC20)651)": {
        "encoding": "mapping",
        "key": "t_string_memory_ptr",
        "label": "mapping(string => contract ERC20)",
        "numberOfBytes": "32",
        "value": "t_contract(ERC20)651"
      },
      "t_mapping(t_uint256,t_struct(Transaction)835_storage)": {
        "encoding": "mapping",
        "key": "t_uint256",
        "label": "mapping(uint256 => struct CustomDex.Transaction)",
        "numberOfBytes": "32",
        "value": "t_struct(Transaction)835_storage"
      },
      "t_string_memory_ptr": {
        "encoding": "bytes",
        "label": "string",
        "numberOfBytes": "32"
      },
      "t_string_storage": {
        "encoding": "bytes",
        "label": "string",
        "numberOfBytes": "32"
      },
      "t_struct(Transaction)835_storage": {
        "encoding": "inplace",
        "label": "struct CustomDex.Transaction",
        "members": [
          {
            "astId": 824,
            "contract": "contracts/CustomDex.sol:CustomDex",
            "label": "id",
            "offset": 0,
            "slot": "0",
            "type": "t_uint256"
          },
          {
            "astId": 826,
            "contract": "contracts/CustomDex.sol:CustomDex",
            "label": "tokenA",
            "offset": 0,
            "slot": "1",
            "type": "t_string_storage"
          },
          {
            "astId": 828,
            "contract": "contracts/CustomDex.sol:CustomDex",
            "label": "tokenB",
            "offset": 0,
            "slot": "2",
            "type": "t_string_storage"
          },
          {
            "astId": 830,
            "contract": "contracts/CustomDex.sol:CustomDex",
            "label": "inputValue",
            "offset": 0,
            "slot": "3",
            "type": "t_uint256"
          },
          {
            "astId": 832,
            "contract": "contracts/CustomDex.sol:CustomDex",
            "label": "outputValue",
            "offset": 0,
            "slot": "4",
            "type": "t_uint256"
          },
          {
            "astId": 834,
            "contract": "contracts/CustomDex.sol:CustomDex",
            "label": "user",
            "offset": 0,
            "slot": "5",
            "type": "t_address"
          }
        ],
        "numberOfBytes": "192"
      },
      "t_uint256": {
        "encoding": "inplace",
        "label": "uint256",
        "numberOfBytes": "32"
      }
    }
  }
}