{
  "address": "0x543Ced8F108CC5B7Eb348f5646959fad6b27714a",
  "abi": [
    {
      "inputs": [],
      "stateMutability": "nonpayable",
      "type": "constructor"
    },
    {
      "anonymous": false,
      "inputs": [
        {
          "indexed": true,
          "internalType": "address",
          "name": "tokenAddress",
          "type": "address"
        },
        {
          "indexed": false,
          "internalType": "uint256",
          "name": "price",
          "type": "uint256"
        },
        {
          "indexed": true,
          "internalType": "address",
          "name": "creator",
          "type": "address"
        },
        {
          "indexed": false,
          "internalType": "string",
          "name": "name",
          "type": "string"
        },
        {
          "indexed": false,
          "internalType": "string",
          "name": "symbol",
          "type": "string"
        }
      ],
      "name": "TokenAdded",
      "type": "event"
    },
    {
      "anonymous": false,
      "inputs": [
        {
          "indexed": true,
          "internalType": "address",
          "name": "tokenAddress",
          "type": "address"
        },
        {
          "indexed": true,
          "internalType": "address",
          "name": "from",
          "type": "address"
        },
        {
          "indexed": false,
          "internalType": "uint256",
          "name": "amount",
          "type": "uint256"
        }
      ],
      "name": "TokenReceived",
      "type": "event"
    },
    {
      "anonymous": false,
      "inputs": [
        {
          "indexed": true,
          "internalType": "address",
          "name": "tokenAddress",
          "type": "address"
        },
        {
          "indexed": true,
          "internalType": "address",
          "name": "from",
          "type": "address"
        },
        {
          "indexed": false,
          "internalType": "uint256",
          "name": "amount",
          "type": "uint256"
        }
      ],
      "name": "TokenTransferred",
      "type": "event"
    },
    {
      "anonymous": false,
      "inputs": [
        {
          "indexed": true,
          "internalType": "address",
          "name": "tokenAddress",
          "type": "address"
        },
        {
          "indexed": true,
          "internalType": "address",
          "name": "from",
          "type": "address"
        },
        {
          "indexed": false,
          "internalType": "uint256",
          "name": "amount",
          "type": "uint256"
        }
      ],
      "name": "TokenWithdrawed",
      "type": "event"
    },
    {
      "inputs": [
        {
          "internalType": "address",
          "name": "tokenAddress",
          "type": "address"
        },
        {
          "internalType": "uint256",
          "name": "amount",
          "type": "uint256"
        }
      ],
      "name": "buyToken",
      "outputs": [],
      "stateMutability": "payable",
      "type": "function"
    },
    {
      "inputs": [
        {
          "internalType": "address",
          "name": "tokenAddress",
          "type": "address"
        },
        {
          "internalType": "uint256",
          "name": "price",
          "type": "uint256"
        }
      ],
      "name": "createICOSale",
      "outputs": [],
      "stateMutability": "nonpayable",
      "type": "function"
    },
    {
      "inputs": [],
      "name": "getAllTokens",
      "outputs": [
        {
          "components": [
            {
              "internalType": "address",
              "name": "tokenAddress",
              "type": "address"
            },
            {
              "internalType": "bool",
              "name": "supported",
              "type": "bool"
            },
            {
              "internalType": "uint256",
              "name": "price",
              "type": "uint256"
            },
            {
              "internalType": "address",
              "name": "creator",
              "type": "address"
            },
            {
              "internalType": "string",
              "name": "name",
              "type": "string"
            },
            {
              "internalType": "string",
              "name": "symbol",
              "type": "string"
            }
          ],
          "internalType": "struct ICOMarketplace.TokenDetails[]",
          "name": "",
          "type": "tuple[]"
        }
      ],
      "stateMutability": "view",
      "type": "function"
    },
    {
      "inputs": [
        {
          "internalType": "address",
          "name": "tokenAddress",
          "type": "address"
        }
      ],
      "name": "getBalance",
      "outputs": [
        {
          "internalType": "uint256",
          "name": "",
          "type": "uint256"
        }
      ],
      "stateMutability": "view",
      "type": "function"
    },
    {
      "inputs": [
        {
          "internalType": "address",
          "name": "creator",
          "type": "address"
        }
      ],
      "name": "getCreatedTokens",
      "outputs": [
        {
          "components": [
            {
              "internalType": "address",
              "name": "tokenAddress",
              "type": "address"
            },
            {
              "internalType": "bool",
              "name": "supported",
              "type": "bool"
            },
            {
              "internalType": "uint256",
              "name": "price",
              "type": "uint256"
            },
            {
              "internalType": "address",
              "name": "creator",
              "type": "address"
            },
            {
              "internalType": "string",
              "name": "name",
              "type": "string"
            },
            {
              "internalType": "string",
              "name": "symbol",
              "type": "string"
            }
          ],
          "internalType": "struct ICOMarketplace.TokenDetails[]",
          "name": "",
          "type": "tuple[]"
        }
      ],
      "stateMutability": "view",
      "type": "function"
    },
    {
      "inputs": [],
      "name": "getSupportedTokens",
      "outputs": [
        {
          "internalType": "address[]",
          "name": "",
          "type": "address[]"
        }
      ],
      "stateMutability": "view",
      "type": "function"
    },
    {
      "inputs": [
        {
          "internalType": "address",
          "name": "tokenAddress",
          "type": "address"
        }
      ],
      "name": "getTokenDetails",
      "outputs": [
        {
          "components": [
            {
              "internalType": "address",
              "name": "tokenAddress",
              "type": "address"
            },
            {
              "internalType": "bool",
              "name": "supported",
              "type": "bool"
            },
            {
              "internalType": "uint256",
              "name": "price",
              "type": "uint256"
            },
            {
              "internalType": "address",
              "name": "creator",
              "type": "address"
            },
            {
              "internalType": "string",
              "name": "name",
              "type": "string"
            },
            {
              "internalType": "string",
              "name": "symbol",
              "type": "string"
            }
          ],
          "internalType": "struct ICOMarketplace.TokenDetails",
          "name": "",
          "type": "tuple"
        }
      ],
      "stateMutability": "view",
      "type": "function"
    },
    {
      "inputs": [],
      "name": "owner",
      "outputs": [
        {
          "internalType": "address",
          "name": "",
          "type": "address"
        }
      ],
      "stateMutability": "view",
      "type": "function"
    },
    {
      "inputs": [
        {
          "internalType": "uint256",
          "name": "",
          "type": "uint256"
        }
      ],
      "name": "supportedTokens",
      "outputs": [
        {
          "internalType": "address",
          "name": "",
          "type": "address"
        }
      ],
      "stateMutability": "view",
      "type": "function"
    },
    {
      "inputs": [
        {
          "internalType": "address",
          "name": "",
          "type": "address"
        }
      ],
      "name": "tokens",
      "outputs": [
        {
          "internalType": "address",
          "name": "tokenAddress",
          "type": "address"
        },
        {
          "internalType": "bool",
          "name": "supported",
          "type": "bool"
        },
        {
          "internalType": "uint256",
          "name": "price",
          "type": "uint256"
        },
        {
          "internalType": "address",
          "name": "creator",
          "type": "address"
        },
        {
          "internalType": "string",
          "name": "name",
          "type": "string"
        },
        {
          "internalType": "string",
          "name": "symbol",
          "type": "string"
        }
      ],
      "stateMutability": "view",
      "type": "function"
    },
    {
      "inputs": [
        {
          "internalType": "address",
          "name": "tokenAddress",
          "type": "address"
        },
        {
          "internalType": "uint256",
          "name": "amount",
          "type": "uint256"
        }
      ],
      "name": "withdrawToken",
      "outputs": [],
      "stateMutability": "nonpayable",
      "type": "function"
    },
    {
      "stateMutability": "payable",
      "type": "receive"
    }
  ],
  "transactionHash": "0xc79211b6e248e3678d0f9bebd613f6cc6165d6f40b05ed7aee38db02df472b5a",
  "args": [],
  "numDeployments": 1,
  "solcInputHash": "34a8f4a54449d6432fe401237e0f61ce",
  "bytecode": "0x608060405234801561000f575f80fd5b503360025f6101000a81548173ffffffffffffffffffffffffffffffffffffffff021916908373ffffffffffffffffffffffffffffffffffffffff160217905550612eb78061005d5f395ff3fe60806040526004361061009f575f3560e01c80639e281a98116100635780639e281a98146101b7578063c6255626146101df578063c6f4a37f1461021b578063d3c7c2c714610257578063e486033914610281578063f8b2cb4f146102c2576100df565b80632a074008146100e35780632a5c792a1461010b57806368f8fc101461013557806388aa8bee146101515780638da5cb5b1461018d576100df565b366100df576040517f08c379a00000000000000000000000000000000000000000000000000000000081526004016100d690611e56565b60405180910390fd5b5f80fd5b3480156100ee575f80fd5b5061010960048036038101906101049190611f12565b6102fe565b005b348015610116575f80fd5b5061011f610632565b60405161012c919061215a565b60405180910390f35b61014f600480360381019061014a9190611f12565b610941565b005b34801561015c575f80fd5b506101776004803603810190610172919061217a565b610e84565b6040516101849190612232565b60405180910390f35b348015610198575f80fd5b506101a1611152565b6040516101ae9190612261565b60405180910390f35b3480156101c2575f80fd5b506101dd60048036038101906101d89190611f12565b611177565b005b3480156101ea575f80fd5b506102056004803603810190610200919061227a565b6114fb565b6040516102129190612261565b60405180910390f35b348015610226575f80fd5b50610241600480360381019061023c919061217a565b611536565b60405161024e919061215a565b60405180910390f35b348015610262575f80fd5b5061026b611a19565b604051610278919061234d565b60405180910390f35b34801561028c575f80fd5b506102a760048036038101906102a2919061217a565b611aa4565b6040516102b9969594939291906123c3565b60405180910390f35b3480156102cd575f80fd5b506102e860048036038101906102e3919061217a565b611c31565b6040516102f59190612430565b60405180910390f35b5f8290505f8173ffffffffffffffffffffffffffffffffffffffff166306fdde036040518163ffffffff1660e01b81526004015f60405180830381865afa15801561034b573d5f803e3d5ffd5b505050506040513d5f823e3d601f19601f820116820180604052508101906103739190612567565b90505f8273ffffffffffffffffffffffffffffffffffffffff166395d89b416040518163ffffffff1660e01b81526004015f60405180830381865afa1580156103be573d5f803e3d5ffd5b505050506040513d5f823e3d601f19601f820116820180604052508101906103e69190612567565b90506040518060c001604052808673ffffffffffffffffffffffffffffffffffffffff1681526020016001151581526020018581526020013373ffffffffffffffffffffffffffffffffffffffff168152602001838152602001828152505f808773ffffffffffffffffffffffffffffffffffffffff1673ffffffffffffffffffffffffffffffffffffffff1681526020019081526020015f205f820151815f015f6101000a81548173ffffffffffffffffffffffffffffffffffffffff021916908373ffffffffffffffffffffffffffffffffffffffff1602179055506020820151815f0160146101000a81548160ff021916908315150217905550604082015181600101556060820151816002015f6101000a81548173ffffffffffffffffffffffffffffffffffffffff021916908373ffffffffffffffffffffffffffffffffffffffff160217905550608082015181600301908161054891906127a8565b5060a082015181600401908161055e91906127a8565b50905050600185908060018154018082558091505060019003905f5260205f20015f9091909190916101000a81548173ffffffffffffffffffffffffffffffffffffffff021916908373ffffffffffffffffffffffffffffffffffffffff1602179055503373ffffffffffffffffffffffffffffffffffffffff168573ffffffffffffffffffffffffffffffffffffffff167f3a9a79cd15a41f1359a9a9233af1f78982f570cfef886de45a01769c231b4c8486858560405161062393929190612877565b60405180910390a35050505050565b60605f60018054905090505f8167ffffffffffffffff81111561065857610657612451565b5b60405190808252806020026020018201604052801561069157816020015b61067e611d76565b8152602001906001900390816106765790505b5090505f5b82811015610938575f80600183815481106106b4576106b36128ba565b5b905f5260205f20015f9054906101000a900473ffffffffffffffffffffffffffffffffffffffff1673ffffffffffffffffffffffffffffffffffffffff1673ffffffffffffffffffffffffffffffffffffffff1681526020019081526020015f206040518060c00160405290815f82015f9054906101000a900473ffffffffffffffffffffffffffffffffffffffff1673ffffffffffffffffffffffffffffffffffffffff1673ffffffffffffffffffffffffffffffffffffffff1681526020015f820160149054906101000a900460ff1615151515815260200160018201548152602001600282015f9054906101000a900473ffffffffffffffffffffffffffffffffffffffff1673ffffffffffffffffffffffffffffffffffffffff1673ffffffffffffffffffffffffffffffffffffffff1681526020016003820180546107fd906125db565b80601f0160208091040260200160405190810160405280929190818152602001828054610829906125db565b80156108745780601f1061084b57610100808354040283529160200191610874565b820191905f5260205f20905b81548152906001019060200180831161085757829003601f168201915b5050505050815260200160048201805461088d906125db565b80601f01602080910402602001604051908101604052809291908181526020018280546108b9906125db565b80156109045780601f106108db57610100808354040283529160200191610904565b820191905f5260205f20905b8154815290600101906020018083116108e757829003601f168201915b5050505050815250508282815181106109205761091f6128ba565b5b60200260200101819052508080600101915050610696565b50809250505090565b815f808273ffffffffffffffffffffffffffffffffffffffff1673ffffffffffffffffffffffffffffffffffffffff1681526020019081526020015f205f0160149054906101000a900460ff166109cd576040517f08c379a00000000000000000000000000000000000000000000000000000000081526004016109c490612931565b60405180910390fd5b5f8211610a0f576040517f08c379a0000000000000000000000000000000000000000000000000000000008152600401610a0690612999565b60405180910390fd5b5f805f8573ffffffffffffffffffffffffffffffffffffffff1673ffffffffffffffffffffffffffffffffffffffff1681526020019081526020015f206040518060c00160405290815f82015f9054906101000a900473ffffffffffffffffffffffffffffffffffffffff1673ffffffffffffffffffffffffffffffffffffffff1673ffffffffffffffffffffffffffffffffffffffff1681526020015f820160149054906101000a900460ff1615151515815260200160018201548152602001600282015f9054906101000a900473ffffffffffffffffffffffffffffffffffffffff1673ffffffffffffffffffffffffffffffffffffffff1673ffffffffffffffffffffffffffffffffffffffff168152602001600382018054610b34906125db565b80601f0160208091040260200160405190810160405280929190818152602001828054610b60906125db565b8015610bab5780601f10610b8257610100808354040283529160200191610bab565b820191905f5260205f20905b815481529060010190602001808311610b8e57829003601f168201915b50505050508152602001600482018054610bc4906125db565b80601f0160208091040260200160405190810160405280929190818152602001828054610bf0906125db565b8015610c3b5780601f10610c1257610100808354040283529160200191610c3b565b820191905f5260205f20905b815481529060010190602001808311610c1e57829003601f168201915b50505050508152505090505f610c55826040015185611d41565b9050803414610c99576040517f08c379a0000000000000000000000000000000000000000000000000000000008152600401610c9090612a01565b60405180910390fd5b5f826060015173ffffffffffffffffffffffffffffffffffffffff1634604051610cc290612a4c565b5f6040518083038185875af1925050503d805f8114610cfc576040519150601f19603f3d011682016040523d82523d5f602084013e610d01565b606091505b5050905080610d45576040517f08c379a0000000000000000000000000000000000000000000000000000000008152600401610d3c90612ad0565b60405180910390fd5b5f8690508073ffffffffffffffffffffffffffffffffffffffff1663a9059cbb33670de0b6b3a764000089610d7a9190612b1b565b6040518363ffffffff1660e01b8152600401610d97929190612b5c565b6020604051808303815f875af1158015610db3573d5f803e3d5ffd5b505050506040513d601f19601f82011682018060405250810190610dd79190612bad565b610e16576040517f08c379a0000000000000000000000000000000000000000000000000000000008152600401610e0d90612c22565b60405180910390fd5b3373ffffffffffffffffffffffffffffffffffffffff168773ffffffffffffffffffffffffffffffffffffffff167f9c8515990fd8c61431c4ac8db9b81475f90c292a1dda77731e56c22e64fc764388604051610e739190612430565b60405180910390a350505050505050565b610e8c611d76565b5f808373ffffffffffffffffffffffffffffffffffffffff1673ffffffffffffffffffffffffffffffffffffffff1681526020019081526020015f205f0160149054906101000a900460ff16610f17576040517f08c379a0000000000000000000000000000000000000000000000000000000008152600401610f0e90612931565b60405180910390fd5b5f808373ffffffffffffffffffffffffffffffffffffffff1673ffffffffffffffffffffffffffffffffffffffff1681526020019081526020015f206040518060c00160405290815f82015f9054906101000a900473ffffffffffffffffffffffffffffffffffffffff1673ffffffffffffffffffffffffffffffffffffffff1673ffffffffffffffffffffffffffffffffffffffff1681526020015f820160149054906101000a900460ff1615151515815260200160018201548152602001600282015f9054906101000a900473ffffffffffffffffffffffffffffffffffffffff1673ffffffffffffffffffffffffffffffffffffffff1673ffffffffffffffffffffffffffffffffffffffff16815260200160038201805461103b906125db565b80601f0160208091040260200160405190810160405280929190818152602001828054611067906125db565b80156110b25780601f10611089576101008083540402835291602001916110b2565b820191905f5260205f20905b81548152906001019060200180831161109557829003601f168201915b505050505081526020016004820180546110cb906125db565b80601f01602080910402602001604051908101604052809291908181526020018280546110f7906125db565b80156111425780601f1061111957610100808354040283529160200191611142565b820191905f5260205f20905b81548152906001019060200180831161112557829003601f168201915b5050505050815250509050919050565b60025f9054906101000a900473ffffffffffffffffffffffffffffffffffffffff1681565b815f808273ffffffffffffffffffffffffffffffffffffffff1673ffffffffffffffffffffffffffffffffffffffff1681526020019081526020015f206002015f9054906101000a900473ffffffffffffffffffffffffffffffffffffffff1673ffffffffffffffffffffffffffffffffffffffff163373ffffffffffffffffffffffffffffffffffffffff1614611244576040517f08c379a000000000000000000000000000000000000000000000000000000000815260040161123b90612cb0565b60405180910390fd5b825f808273ffffffffffffffffffffffffffffffffffffffff1673ffffffffffffffffffffffffffffffffffffffff1681526020019081526020015f205f0160149054906101000a900460ff166112d0576040517f08c379a00000000000000000000000000000000000000000000000000000000081526004016112c790612931565b60405180910390fd5b5f8311611312576040517f08c379a000000000000000000000000000000000000000000000000000000000815260040161130990612999565b60405180910390fd5b5f8490505f8173ffffffffffffffffffffffffffffffffffffffff166370a08231306040518263ffffffff1660e01b81526004016113509190612261565b602060405180830381865afa15801561136b573d5f803e3d5ffd5b505050506040513d601f19601f8201168201806040525081019061138f9190612ce2565b9050848110156113d4576040517f08c379a00000000000000000000000000000000000000000000000000000000081526004016113cb90612d57565b60405180910390fd5b8173ffffffffffffffffffffffffffffffffffffffff1663a9059cbb33876040518363ffffffff1660e01b815260040161140f929190612b5c565b6020604051808303815f875af115801561142b573d5f803e3d5ffd5b505050506040513d601f19601f8201168201806040525081019061144f9190612bad565b61148e576040517f08c379a000000000000000000000000000000000000000000000000000000000815260040161148590612dbf565b60405180910390fd5b3373ffffffffffffffffffffffffffffffffffffffff168673ffffffffffffffffffffffffffffffffffffffff167ffcb8ed22e6eaf31b28185a104ecfab6523b5459ffe8778d8edcf6a8846e6b342876040516114eb9190612430565b60405180910390a3505050505050565b6001818154811061150a575f80fd5b905f5260205f20015f915054906101000a900473ffffffffffffffffffffffffffffffffffffffff1681565b60605f805b600180549050811015611630578373ffffffffffffffffffffffffffffffffffffffff165f8060018481548110611575576115746128ba565b5b905f5260205f20015f9054906101000a900473ffffffffffffffffffffffffffffffffffffffff1673ffffffffffffffffffffffffffffffffffffffff1673ffffffffffffffffffffffffffffffffffffffff1681526020019081526020015f206002015f9054906101000a900473ffffffffffffffffffffffffffffffffffffffff1673ffffffffffffffffffffffffffffffffffffffff160361162357818061161f90612ddd565b9250505b808060010191505061153b565b505f8167ffffffffffffffff81111561164c5761164b612451565b5b60405190808252806020026020018201604052801561168557816020015b611672611d76565b81526020019060019003908161166a5790505b5090505f805b600180549050811015611a0d578573ffffffffffffffffffffffffffffffffffffffff165f80600184815481106116c5576116c46128ba565b5b905f5260205f20015f9054906101000a900473ffffffffffffffffffffffffffffffffffffffff1673ffffffffffffffffffffffffffffffffffffffff1673ffffffffffffffffffffffffffffffffffffffff1681526020019081526020015f206002015f9054906101000a900473ffffffffffffffffffffffffffffffffffffffff1673ffffffffffffffffffffffffffffffffffffffff1603611a00575f806001838154811061177a576117796128ba565b5b905f5260205f20015f9054906101000a900473ffffffffffffffffffffffffffffffffffffffff1673ffffffffffffffffffffffffffffffffffffffff1673ffffffffffffffffffffffffffffffffffffffff1681526020019081526020015f206040518060c00160405290815f82015f9054906101000a900473ffffffffffffffffffffffffffffffffffffffff1673ffffffffffffffffffffffffffffffffffffffff1673ffffffffffffffffffffffffffffffffffffffff1681526020015f820160149054906101000a900460ff1615151515815260200160018201548152602001600282015f9054906101000a900473ffffffffffffffffffffffffffffffffffffffff1673ffffffffffffffffffffffffffffffffffffffff1673ffffffffffffffffffffffffffffffffffffffff1681526020016003820180546118c3906125db565b80601f01602080910402602001604051908101604052809291908181526020018280546118ef906125db565b801561193a5780601f106119115761010080835404028352916020019161193a565b820191905f5260205f20905b81548152906001019060200180831161191d57829003601f168201915b50505050508152602001600482018054611953906125db565b80601f016020809104026020016040519081016040528092919081815260200182805461197f906125db565b80156119ca5780601f106119a1576101008083540402835291602001916119ca565b820191905f5260205f20905b8154815290600101906020018083116119ad57829003601f168201915b5050505050815250508383815181106119e6576119e56128ba565b5b602002602001018190525081806119fc90612ddd565b9250505b808060010191505061168b565b50819350505050919050565b60606001805480602002602001604051908101604052809291908181526020018280548015611a9a57602002820191905f5260205f20905b815f9054906101000a900473ffffffffffffffffffffffffffffffffffffffff1673ffffffffffffffffffffffffffffffffffffffff1681526020019060010190808311611a51575b5050505050905090565b5f602052805f5260405f205f91509050805f015f9054906101000a900473ffffffffffffffffffffffffffffffffffffffff1690805f0160149054906101000a900460ff1690806001015490806002015f9054906101000a900473ffffffffffffffffffffffffffffffffffffffff1690806003018054611b24906125db565b80601f0160208091040260200160405190810160405280929190818152602001828054611b50906125db565b8015611b9b5780601f10611b7257610100808354040283529160200191611b9b565b820191905f5260205f20905b815481529060010190602001808311611b7e57829003601f168201915b505050505090806004018054611bb0906125db565b80601f0160208091040260200160405190810160405280929190818152602001828054611bdc906125db565b8015611c275780601f10611bfe57610100808354040283529160200191611c27565b820191905f5260205f20905b815481529060010190602001808311611c0a57829003601f168201915b5050505050905086565b5f805f8373ffffffffffffffffffffffffffffffffffffffff1673ffffffffffffffffffffffffffffffffffffffff1681526020019081526020015f205f0160149054906101000a900460ff16611cbd576040517f08c379a0000000000000000000000000000000000000000000000000000000008152600401611cb490612931565b60405180910390fd5b5f8290508073ffffffffffffffffffffffffffffffffffffffff166370a08231306040518263ffffffff1660e01b8152600401611cfa9190612261565b602060405180830381865afa158015611d15573d5f803e3d5ffd5b505050506040513d601f19601f82011682018060405250810190611d399190612ce2565b915050919050565b5f80821480611d68575082828385611d599190612b1b565b925082611d669190612e51565b145b611d70575f80fd5b92915050565b6040518060c001604052805f73ffffffffffffffffffffffffffffffffffffffff1681526020015f151581526020015f81526020015f73ffffffffffffffffffffffffffffffffffffffff16815260200160608152602001606081525090565b5f82825260208201905092915050565b7f436f6e747261637420646f6573206e6f742061636365707420457468657220645f8201527f69726563746c7900000000000000000000000000000000000000000000000000602082015250565b5f611e40602783611dd6565b9150611e4b82611de6565b604082019050919050565b5f6020820190508181035f830152611e6d81611e34565b9050919050565b5f604051905090565b5f80fd5b5f80fd5b5f73ffffffffffffffffffffffffffffffffffffffff82169050919050565b5f611eae82611e85565b9050919050565b611ebe81611ea4565b8114611ec8575f80fd5b50565b5f81359050611ed981611eb5565b92915050565b5f819050919050565b611ef181611edf565b8114611efb575f80fd5b50565b5f81359050611f0c81611ee8565b92915050565b5f8060408385031215611f2857611f27611e7d565b5b5f611f3585828601611ecb565b9250506020611f4685828601611efe565b9150509250929050565b5f81519050919050565b5f82825260208201905092915050565b5f819050602082019050919050565b611f8281611ea4565b82525050565b5f8115159050919050565b611f9c81611f88565b82525050565b611fab81611edf565b82525050565b5f81519050919050565b5f82825260208201905092915050565b5f5b83811015611fe8578082015181840152602081019050611fcd565b5f8484015250505050565b5f601f19601f8301169050919050565b5f61200d82611fb1565b6120178185611fbb565b9350612027818560208601611fcb565b61203081611ff3565b840191505092915050565b5f60c083015f8301516120505f860182611f79565b5060208301516120636020860182611f93565b5060408301516120766040860182611fa2565b5060608301516120896060860182611f79565b50608083015184820360808601526120a18282612003565b91505060a083015184820360a08601526120bb8282612003565b9150508091505092915050565b5f6120d3838361203b565b905092915050565b5f602082019050919050565b5f6120f182611f50565b6120fb8185611f5a565b93508360208202850161210d85611f6a565b805f5b85811015612148578484038952815161212985826120c8565b9450612134836120db565b925060208a01995050600181019050612110565b50829750879550505050505092915050565b5f6020820190508181035f83015261217281846120e7565b905092915050565b5f6020828403121561218f5761218e611e7d565b5b5f61219c84828501611ecb565b91505092915050565b5f60c083015f8301516121ba5f860182611f79565b5060208301516121cd6020860182611f93565b5060408301516121e06040860182611fa2565b5060608301516121f36060860182611f79565b506080830151848203608086015261220b8282612003565b91505060a083015184820360a08601526122258282612003565b9150508091505092915050565b5f6020820190508181035f83015261224a81846121a5565b905092915050565b61225b81611ea4565b82525050565b5f6020820190506122745f830184612252565b92915050565b5f6020828403121561228f5761228e611e7d565b5b5f61229c84828501611efe565b91505092915050565b5f81519050919050565b5f82825260208201905092915050565b5f819050602082019050919050565b5f6122d98383611f79565b60208301905092915050565b5f602082019050919050565b5f6122fb826122a5565b61230581856122af565b9350612310836122bf565b805f5b8381101561234057815161232788826122ce565b9750612332836122e5565b925050600181019050612313565b5085935050505092915050565b5f6020820190508181035f83015261236581846122f1565b905092915050565b61237681611f88565b82525050565b61238581611edf565b82525050565b5f61239582611fb1565b61239f8185611dd6565b93506123af818560208601611fcb565b6123b881611ff3565b840191505092915050565b5f60c0820190506123d65f830189612252565b6123e3602083018861236d565b6123f0604083018761237c565b6123fd6060830186612252565b818103608083015261240f818561238b565b905081810360a0830152612423818461238b565b9050979650505050505050565b5f6020820190506124435f83018461237c565b92915050565b5f80fd5b5f80fd5b7f4e487b71000000000000000000000000000000000000000000000000000000005f52604160045260245ffd5b61248782611ff3565b810181811067ffffffffffffffff821117156124a6576124a5612451565b5b80604052505050565b5f6124b8611e74565b90506124c4828261247e565b919050565b5f67ffffffffffffffff8211156124e3576124e2612451565b5b6124ec82611ff3565b9050602081019050919050565b5f61250b612506846124c9565b6124af565b9050828152602081018484840111156125275761252661244d565b5b612532848285611fcb565b509392505050565b5f82601f83011261254e5761254d612449565b5b815161255e8482602086016124f9565b91505092915050565b5f6020828403121561257c5761257b611e7d565b5b5f82015167ffffffffffffffff81111561259957612598611e81565b5b6125a58482850161253a565b91505092915050565b7f4e487b71000000000000000000000000000000000000000000000000000000005f52602260045260245ffd5b5f60028204905060018216806125f257607f821691505b602082108103612605576126046125ae565b5b50919050565b5f819050815f5260205f209050919050565b5f6020601f8301049050919050565b5f82821b905092915050565b5f600883026126677fffffffffffffffffffffffffffffffffffffffffffffffffffffffffffffffff8261262c565b612671868361262c565b95508019841693508086168417925050509392505050565b5f819050919050565b5f6126ac6126a76126a284611edf565b612689565b611edf565b9050919050565b5f819050919050565b6126c583612692565b6126d96126d1826126b3565b848454612638565b825550505050565b5f90565b6126ed6126e1565b6126f88184846126bc565b505050565b5b8181101561271b576127105f826126e5565b6001810190506126fe565b5050565b601f821115612760576127318161260b565b61273a8461261d565b81016020851015612749578190505b61275d6127558561261d565b8301826126fd565b50505b505050565b5f82821c905092915050565b5f6127805f1984600802612765565b1980831691505092915050565b5f6127988383612771565b9150826002028217905092915050565b6127b182611fb1565b67ffffffffffffffff8111156127ca576127c9612451565b5b6127d482546125db565b6127df82828561271f565b5f60209050601f831160018114612810575f84156127fe578287015190505b612808858261278d565b86555061286f565b601f19841661281e8661260b565b5f5b8281101561284557848901518255600182019150602085019450602081019050612820565b86831015612862578489015161285e601f891682612771565b8355505b6001600288020188555050505b505050505050565b5f60608201905061288a5f83018661237c565b818103602083015261289c818561238b565b905081810360408301526128b0818461238b565b9050949350505050565b7f4e487b71000000000000000000000000000000000000000000000000000000005f52603260045260245ffd5b7f546f6b656e206e6f7420737570706f72746564000000000000000000000000005f82015250565b5f61291b601383611dd6565b9150612926826128e7565b602082019050919050565b5f6020820190508181035f8301526129488161290f565b9050919050565b7f416d6f756e74206d7573742062652067726561746572207468616e20300000005f82015250565b5f612983601d83611dd6565b915061298e8261294f565b602082019050919050565b5f6020820190508181035f8301526129b081612977565b9050919050565b7f496e636f727265637420457468657220616d6f756e742073656e7400000000005f82015250565b5f6129eb601b83611dd6565b91506129f6826129b7565b602082019050919050565b5f6020820190508181035f830152612a18816129df565b9050919050565b5f81905092915050565b50565b5f612a375f83612a1f565b9150612a4282612a29565b5f82019050919050565b5f612a5682612a2c565b9150819050919050565b7f4661696c656420746f207472616e7366657220457468657220746f20746f6b655f8201527f6e2063726561746f720000000000000000000000000000000000000000000000602082015250565b5f612aba602983611dd6565b9150612ac582612a60565b604082019050919050565b5f6020820190508181035f830152612ae781612aae565b9050919050565b7f4e487b71000000000000000000000000000000000000000000000000000000005f52601160045260245ffd5b5f612b2582611edf565b9150612b3083611edf565b9250828202612b3e81611edf565b91508282048414831517612b5557612b54612aee565b5b5092915050565b5f604082019050612b6f5f830185612252565b612b7c602083018461237c565b9392505050565b612b8c81611f88565b8114612b96575f80fd5b50565b5f81519050612ba781612b83565b92915050565b5f60208284031215612bc257612bc1611e7d565b5b5f612bcf84828501612b99565b91505092915050565b7f5472616e73666572206661696c656400000000000000000000000000000000005f82015250565b5f612c0c600f83611dd6565b9150612c1782612bd8565b602082019050919050565b5f6020820190508181035f830152612c3981612c00565b9050919050565b7f43616c6c6572206973206e6f742074686520746f6b656e4164647265737320635f8201527f726561746f720000000000000000000000000000000000000000000000000000602082015250565b5f612c9a602683611dd6565b9150612ca582612c40565b604082019050919050565b5f6020820190508181035f830152612cc781612c8e565b9050919050565b5f81519050612cdc81611ee8565b92915050565b5f60208284031215612cf757612cf6611e7d565b5b5f612d0484828501612cce565b91505092915050565b7f496e73756666696369656e7420746f6b656e2062616c616e63650000000000005f82015250565b5f612d41601a83611dd6565b9150612d4c82612d0d565b602082019050919050565b5f6020820190508181035f830152612d6e81612d35565b9050919050565b7f546f6b656e207472616e73666572206661696c656400000000000000000000005f82015250565b5f612da9601583611dd6565b9150612db482612d75565b602082019050919050565b5f6020820190508181035f830152612dd681612d9d565b9050919050565b5f612de782611edf565b91507fffffffffffffffffffffffffffffffffffffffffffffffffffffffffffffffff8203612e1957612e18612aee565b5b600182019050919050565b7f4e487b71000000000000000000000000000000000000000000000000000000005f52601260045260245ffd5b5f612e5b82611edf565b9150612e6683611edf565b925082612e7657612e75612e24565b5b82820490509291505056fea2646970667358221220cdc35cfd49f1faff3221556819636eb6b7e71e7273e86ab76beaf0adbc44d97764736f6c63430008180033",
  "devdoc": {
    "kind": "dev",
    "methods": {},
    "version": 1
  },
  "userdoc": {
    "kind": "user",
    "methods": {},
    "version": 1
  },
  "storageLayout": {
    "storage": [
      {
        "astId": 861,
        "contract": "contracts/ICOMarketplace.sol:ICOMarketplace",
        "label": "tokens",
        "offset": 0,
        "slot": "0",
        "type": "t_mapping(t_address,t_struct(TokenDetails)856_storage)"
      },
      {
        "astId": 864,
        "contract": "contracts/ICOMarketplace.sol:ICOMarketplace",
        "label": "supportedTokens",
        "offset": 0,
        "slot": "1",
        "type": "t_array(t_address)dyn_storage"
      },
      {
        "astId": 866,
        "contract": "contracts/ICOMarketplace.sol:ICOMarketplace",
        "label": "owner",
        "offset": 0,
        "slot": "2",
        "type": "t_address"
      }
    ],
    "types": {
      "t_address": {
        "encoding": "inplace",
        "label": "address",
        "numberOfBytes": "20"
      },
      "t_array(t_address)dyn_storage": {
        "base": "t_address",
        "encoding": "dynamic_array",
        "label": "address[]",
        "numberOfBytes": "32"
      },
      "t_bool": {
        "encoding": "inplace",
        "label": "bool",
        "numberOfBytes": "1"
      },
      "t_mapping(t_address,t_struct(TokenDetails)856_storage)": {
        "encoding": "mapping",
        "key": "t_address",
        "label": "mapping(address => struct ICOMarketplace.TokenDetails)",
        "numberOfBytes": "32",
        "value": "t_struct(TokenDetails)856_storage"
      },
      "t_string_storage": {
        "encoding": "bytes",
        "label": "string",
        "numberOfBytes": "32"
      },
      "t_struct(TokenDetails)856_storage": {
        "encoding": "inplace",
        "label": "struct ICOMarketplace.TokenDetails",
        "members": [
          {
            "astId": 845,
            "contract": "contracts/ICOMarketplace.sol:ICOMarketplace",
            "label": "tokenAddress",
            "offset": 0,
            "slot": "0",
            "type": "t_address"
          },
          {
            "astId": 847,
            "contract": "contracts/ICOMarketplace.sol:ICOMarketplace",
            "label": "supported",
            "offset": 20,
            "slot": "0",
            "type": "t_bool"
          },
          {
            "astId": 849,
            "contract": "contracts/ICOMarketplace.sol:ICOMarketplace",
            "label": "price",
            "offset": 0,
            "slot": "1",
            "type": "t_uint256"
          },
          {
            "astId": 851,
            "contract": "contracts/ICOMarketplace.sol:ICOMarketplace",
            "label": "creator",
            "offset": 0,
            "slot": "2",
            "type": "t_address"
          },
          {
            "astId": 853,
            "contract": "contracts/ICOMarketplace.sol:ICOMarketplace",
            "label": "name",
            "offset": 0,
            "slot": "3",
            "type": "t_string_storage"
          },
          {
            "astId": 855,
            "contract": "contracts/ICOMarketplace.sol:ICOMarketplace",
            "label": "symbol",
            "offset": 0,
            "slot": "4",
            "type": "t_string_storage"
          }
        ],
        "numberOfBytes": "160"
      },
      "t_uint256": {
        "encoding": "inplace",
        "label": "uint256",
        "numberOfBytes": "32"
      }
    }
  }
}