{
  "_format": "hh-sol-artifact-1",
  "contractName": "PreSale",
  "sourceName": "contracts/PreSale.sol",
  "abi": [
    {
      "inputs": [],
      "stateMutability": "nonpayable",
      "type": "constructor"
    },
    {
      "anonymous": false,
      "inputs": [
        {
          "indexed": true,
          "internalType": "address",
          "name": "token",
          "type": "address"
        },
        {
          "indexed": false,
          "internalType": "uint256",
          "name": "price",
          "type": "uint256"
        },
        {
          "indexed": true,
          "internalType": "address",
          "name": "creator",
          "type": "address"
        },
        {
          "indexed": false,
          "internalType": "string",
          "name": "name",
          "type": "string"
        },
        {
          "indexed": false,
          "internalType": "string",
          "name": "symbol",
          "type": "string"
        }
      ],
      "name": "TokenAdded",
      "type": "event"
    },
    {
      "anonymous": false,
      "inputs": [
        {
          "indexed": true,
          "internalType": "address",
          "name": "token",
          "type": "address"
        },
        {
          "indexed": true,
          "internalType": "address",
          "name": "from",
          "type": "address"
        },
        {
          "indexed": false,
          "internalType": "uint256",
          "name": "amount",
          "type": "uint256"
        }
      ],
      "name": "TokensReceived",
      "type": "event"
    },
    {
      "anonymous": false,
      "inputs": [
        {
          "indexed": true,
          "internalType": "address",
          "name": "token",
          "type": "address"
        },
        {
          "indexed": true,
          "internalType": "address",
          "name": "to",
          "type": "address"
        },
        {
          "indexed": false,
          "internalType": "uint256",
          "name": "amount",
          "type": "uint256"
        }
      ],
      "name": "TokensTransferred",
      "type": "event"
    },
    {
      "anonymous": false,
      "inputs": [
        {
          "indexed": true,
          "internalType": "address",
          "name": "token",
          "type": "address"
        },
        {
          "indexed": true,
          "internalType": "address",
          "name": "to",
          "type": "address"
        },
        {
          "indexed": false,
          "internalType": "uint256",
          "name": "amount",
          "type": "uint256"
        }
      ],
      "name": "TokensWithdrawn",
      "type": "event"
    },
    {
      "inputs": [
        {
          "internalType": "uint256",
          "name": "",
          "type": "uint256"
        }
      ],
      "name": "allSupportedTokens",
      "outputs": [
        {
          "internalType": "address",
          "name": "",
          "type": "address"
        }
      ],
      "stateMutability": "view",
      "type": "function"
    },
    {
      "inputs": [
        {
          "internalType": "address",
          "name": "_token",
          "type": "address"
        },
        {
          "internalType": "uint256",
          "name": "_amount",
          "type": "uint256"
        }
      ],
      "name": "buyToken",
      "outputs": [],
      "stateMutability": "payable",
      "type": "function"
    },
    {
      "inputs": [
        {
          "internalType": "address",
          "name": "_token",
          "type": "address"
        },
        {
          "internalType": "uint256",
          "name": "_price",
          "type": "uint256"
        }
      ],
      "name": "createPreSale",
      "outputs": [],
      "stateMutability": "nonpayable",
      "type": "function"
    },
    {
      "inputs": [],
      "name": "getAllTokens",
      "outputs": [
        {
          "components": [
            {
              "internalType": "address",
              "name": "token",
              "type": "address"
            },
            {
              "internalType": "bool",
              "name": "supported",
              "type": "bool"
            },
            {
              "internalType": "uint256",
              "name": "price",
              "type": "uint256"
            },
            {
              "internalType": "address",
              "name": "creator",
              "type": "address"
            },
            {
              "internalType": "string",
              "name": "name",
              "type": "string"
            },
            {
              "internalType": "string",
              "name": "symbol",
              "type": "string"
            }
          ],
          "internalType": "struct PreSale.TokenDetails[]",
          "name": "",
          "type": "tuple[]"
        }
      ],
      "stateMutability": "view",
      "type": "function"
    },
    {
      "inputs": [
        {
          "internalType": "address",
          "name": "_token",
          "type": "address"
        }
      ],
      "name": "getBalance",
      "outputs": [
        {
          "internalType": "uint256",
          "name": "",
          "type": "uint256"
        }
      ],
      "stateMutability": "view",
      "type": "function"
    },
    {
      "inputs": [],
      "name": "getSupportedTokens",
      "outputs": [
        {
          "internalType": "address[]",
          "name": "",
          "type": "address[]"
        }
      ],
      "stateMutability": "view",
      "type": "function"
    },
    {
      "inputs": [
        {
          "internalType": "address",
          "name": "_token",
          "type": "address"
        }
      ],
      "name": "getTokenDetails",
      "outputs": [
        {
          "components": [
            {
              "internalType": "address",
              "name": "token",
              "type": "address"
            },
            {
              "internalType": "bool",
              "name": "supported",
              "type": "bool"
            },
            {
              "internalType": "uint256",
              "name": "price",
              "type": "uint256"
            },
            {
              "internalType": "address",
              "name": "creator",
              "type": "address"
            },
            {
              "internalType": "string",
              "name": "name",
              "type": "string"
            },
            {
              "internalType": "string",
              "name": "symbol",
              "type": "string"
            }
          ],
          "internalType": "struct PreSale.TokenDetails",
          "name": "",
          "type": "tuple"
        }
      ],
      "stateMutability": "view",
      "type": "function"
    },
    {
      "inputs": [
        {
          "internalType": "address",
          "name": "_creator",
          "type": "address"
        }
      ],
      "name": "getTokensCreatedBy",
      "outputs": [
        {
          "components": [
            {
              "internalType": "address",
              "name": "token",
              "type": "address"
            },
            {
              "internalType": "bool",
              "name": "supported",
              "type": "bool"
            },
            {
              "internalType": "uint256",
              "name": "price",
              "type": "uint256"
            },
            {
              "internalType": "address",
              "name": "creator",
              "type": "address"
            },
            {
              "internalType": "string",
              "name": "name",
              "type": "string"
            },
            {
              "internalType": "string",
              "name": "symbol",
              "type": "string"
            }
          ],
          "internalType": "struct PreSale.TokenDetails[]",
          "name": "",
          "type": "tuple[]"
        }
      ],
      "stateMutability": "view",
      "type": "function"
    },
    {
      "inputs": [],
      "name": "owner",
      "outputs": [
        {
          "internalType": "address",
          "name": "",
          "type": "address"
        }
      ],
      "stateMutability": "view",
      "type": "function"
    },
    {
      "inputs": [
        {
          "internalType": "address",
          "name": "",
          "type": "address"
        }
      ],
      "name": "tokenDetails",
      "outputs": [
        {
          "internalType": "address",
          "name": "token",
          "type": "address"
        },
        {
          "internalType": "bool",
          "name": "supported",
          "type": "bool"
        },
        {
          "internalType": "uint256",
          "name": "price",
          "type": "uint256"
        },
        {
          "internalType": "address",
          "name": "creator",
          "type": "address"
        },
        {
          "internalType": "string",
          "name": "name",
          "type": "string"
        },
        {
          "internalType": "string",
          "name": "symbol",
          "type": "string"
        }
      ],
      "stateMutability": "view",
      "type": "function"
    },
    {
      "inputs": [
        {
          "internalType": "address",
          "name": "_token",
          "type": "address"
        },
        {
          "internalType": "uint256",
          "name": "_amount",
          "type": "uint256"
        }
      ],
      "name": "withdrawToken",
      "outputs": [],
      "stateMutability": "nonpayable",
      "type": "function"
    },
    {
      "stateMutability": "payable",
      "type": "receive"
    }
  ],
  "bytecode": "0x608060405234801561001057600080fd5b5033600260006101000a81548173ffffffffffffffffffffffffffffffffffffffff021916908373ffffffffffffffffffffffffffffffffffffffff160217905550612eb6806100616000396000f3fe6080604052600436106100a05760003560e01c80639e281a98116100645780639e281a98146101d1578063a555fafa146101fa578063d3c7c2c714610223578063dd4be6831461024e578063ddc0f31214610290578063f8b2cb4f146102cd576100e0565b80632a5c792a146100e55780633a80f21d1461011057806368f8fc101461014d57806388aa8bee146101695780638da5cb5b146101a6576100e0565b366100e0576040517f08c379a00000000000000000000000000000000000000000000000000000000081526004016100d790612940565b60405180910390fd5b600080fd5b3480156100f157600080fd5b506100fa61030a565b604051610107919061291e565b60405180910390f35b34801561011c57600080fd5b5061013760048036038101906101329190612251565b6106a1565b6040516101449190612849565b60405180910390f35b610167600480360381019061016291906121ab565b6106e0565b005b34801561017557600080fd5b50610190600480360381019061018b9190612182565b610c4a565b60405161019d9190612a60565b60405180910390f35b3480156101b257600080fd5b506101bb610f25565b6040516101c89190612849565b60405180910390f35b3480156101dd57600080fd5b506101f860048036038101906101f391906121ab565b610f4b565b005b34801561020657600080fd5b50610221600480360381019061021c91906121ab565b6112fb565b005b34801561022f57600080fd5b50610238611670565b60405161024591906128fc565b60405180910390f35b34801561025a57600080fd5b5061027560048036038101906102709190612182565b6116fe565b60405161028796959493929190612864565b60405180910390f35b34801561029c57600080fd5b506102b760048036038101906102b29190612182565b611897565b6040516102c4919061291e565b60405180910390f35b3480156102d957600080fd5b506102f460048036038101906102ef9190612182565b611e62565b6040516103019190612a82565b60405180910390f35b60606000600180549050905060008167ffffffffffffffff811115610358577f4e487b7100000000000000000000000000000000000000000000000000000000600052604160045260246000fd5b60405190808252806020026020018201604052801561039157816020015b61037e611fbf565b8152602001906001900390816103765790505b50905060005b8281101561069857600080600183815481106103dc577f4e487b7100000000000000000000000000000000000000000000000000000000600052603260045260246000fd5b9060005260206000200160009054906101000a900473ffffffffffffffffffffffffffffffffffffffff1673ffffffffffffffffffffffffffffffffffffffff1673ffffffffffffffffffffffffffffffffffffffff1681526020019081526020016000206040518060c00160405290816000820160009054906101000a900473ffffffffffffffffffffffffffffffffffffffff1673ffffffffffffffffffffffffffffffffffffffff1673ffffffffffffffffffffffffffffffffffffffff1681526020016000820160149054906101000a900460ff16151515158152602001600182015481526020016002820160009054906101000a900473ffffffffffffffffffffffffffffffffffffffff1673ffffffffffffffffffffffffffffffffffffffff1673ffffffffffffffffffffffffffffffffffffffff16815260200160038201805461052d90612cf3565b80601f016020809104026020016040519081016040528092919081815260200182805461055990612cf3565b80156105a65780601f1061057b576101008083540402835291602001916105a6565b820191906000526020600020905b81548152906001019060200180831161058957829003601f168201915b505050505081526020016004820180546105bf90612cf3565b80601f01602080910402602001604051908101604052809291908181526020018280546105eb90612cf3565b80156106385780601f1061060d57610100808354040283529160200191610638565b820191906000526020600020905b81548152906001019060200180831161061b57829003601f168201915b50505050508152505082828151811061067a577f4e487b7100000000000000000000000000000000000000000000000000000000600052603260045260246000fd5b6020026020010181905250808061069090612d25565b915050610397565b50809250505090565b600181815481106106b157600080fd5b906000526020600020016000915054906101000a900473ffffffffffffffffffffffffffffffffffffffff1681565b816000808273ffffffffffffffffffffffffffffffffffffffff1673ffffffffffffffffffffffffffffffffffffffff16815260200190815260200160002060000160149054906101000a900460ff1661076f576040517f08c379a000000000000000000000000000000000000000000000000000000000815260040161076690612a00565b60405180910390fd5b600082116107b2576040517f08c379a00000000000000000000000000000000000000000000000000000000081526004016107a990612980565b60405180910390fd5b60008060008573ffffffffffffffffffffffffffffffffffffffff1673ffffffffffffffffffffffffffffffffffffffff1681526020019081526020016000206040518060c00160405290816000820160009054906101000a900473ffffffffffffffffffffffffffffffffffffffff1673ffffffffffffffffffffffffffffffffffffffff1673ffffffffffffffffffffffffffffffffffffffff1681526020016000820160149054906101000a900460ff16151515158152602001600182015481526020016002820160009054906101000a900473ffffffffffffffffffffffffffffffffffffffff1673ffffffffffffffffffffffffffffffffffffffff1673ffffffffffffffffffffffffffffffffffffffff1681526020016003820180546108de90612cf3565b80601f016020809104026020016040519081016040528092919081815260200182805461090a90612cf3565b80156109575780601f1061092c57610100808354040283529160200191610957565b820191906000526020600020905b81548152906001019060200180831161093a57829003601f168201915b5050505050815260200160048201805461097090612cf3565b80601f016020809104026020016040519081016040528092919081815260200182805461099c90612cf3565b80156109e95780601f106109be576101008083540402835291602001916109e9565b820191906000526020600020905b8154815290600101906020018083116109cc57829003601f168201915b50505050508152505090506000610a04826040015185611f88565b9050803414610a48576040517f08c379a0000000000000000000000000000000000000000000000000000000008152600401610a3f906129c0565b60405180910390fd5b6000826060015173ffffffffffffffffffffffffffffffffffffffff1634604051610a7290612834565b60006040518083038185875af1925050503d8060008114610aaf576040519150601f19603f3d011682016040523d82523d6000602084013e610ab4565b606091505b5050905080610af8576040517f08c379a0000000000000000000000000000000000000000000000000000000008152600401610aef906129a0565b60405180910390fd5b60008690508073ffffffffffffffffffffffffffffffffffffffff1663a9059cbb33670de0b6b3a764000089610b2e9190612c1e565b6040518363ffffffff1660e01b8152600401610b4b9291906128d3565b602060405180830381600087803b158015610b6557600080fd5b505af1158015610b79573d6000803e3d6000fd5b505050506040513d601f19601f82011682018060405250810190610b9d91906121e7565b610bdc576040517f08c379a0000000000000000000000000000000000000000000000000000000008152600401610bd390612960565b60405180910390fd5b3373ffffffffffffffffffffffffffffffffffffffff168773ffffffffffffffffffffffffffffffffffffffff167f1b89874203ff7f0bba87c969ada3f32fda22ed38a6706d35199d21280c7811b188604051610c399190612a82565b60405180910390a350505050505050565b610c52611fbf565b6000808373ffffffffffffffffffffffffffffffffffffffff1673ffffffffffffffffffffffffffffffffffffffff16815260200190815260200160002060000160149054906101000a900460ff16610ce0576040517f08c379a0000000000000000000000000000000000000000000000000000000008152600401610cd790612a00565b60405180910390fd5b6000808373ffffffffffffffffffffffffffffffffffffffff1673ffffffffffffffffffffffffffffffffffffffff1681526020019081526020016000206040518060c00160405290816000820160009054906101000a900473ffffffffffffffffffffffffffffffffffffffff1673ffffffffffffffffffffffffffffffffffffffff1673ffffffffffffffffffffffffffffffffffffffff1681526020016000820160149054906101000a900460ff16151515158152602001600182015481526020016002820160009054906101000a900473ffffffffffffffffffffffffffffffffffffffff1673ffffffffffffffffffffffffffffffffffffffff1673ffffffffffffffffffffffffffffffffffffffff168152602001600382018054610e0a90612cf3565b80601f0160208091040260200160405190810160405280929190818152602001828054610e3690612cf3565b8015610e835780601f10610e5857610100808354040283529160200191610e83565b820191906000526020600020905b815481529060010190602001808311610e6657829003601f168201915b50505050508152602001600482018054610e9c90612cf3565b80601f0160208091040260200160405190810160405280929190818152602001828054610ec890612cf3565b8015610f155780601f10610eea57610100808354040283529160200191610f15565b820191906000526020600020905b815481529060010190602001808311610ef857829003601f168201915b5050505050815250509050919050565b600260009054906101000a900473ffffffffffffffffffffffffffffffffffffffff1681565b816000808273ffffffffffffffffffffffffffffffffffffffff1673ffffffffffffffffffffffffffffffffffffffff16815260200190815260200160002060020160009054906101000a900473ffffffffffffffffffffffffffffffffffffffff1673ffffffffffffffffffffffffffffffffffffffff163373ffffffffffffffffffffffffffffffffffffffff161461101b576040517f08c379a000000000000000000000000000000000000000000000000000000000815260040161101290612a40565b60405180910390fd5b826000808273ffffffffffffffffffffffffffffffffffffffff1673ffffffffffffffffffffffffffffffffffffffff16815260200190815260200160002060000160149054906101000a900460ff166110aa576040517f08c379a00000000000000000000000000000000000000000000000000000000081526004016110a190612a00565b60405180910390fd5b600083116110ed576040517f08c379a00000000000000000000000000000000000000000000000000000000081526004016110e490612980565b60405180910390fd5b600084905060008173ffffffffffffffffffffffffffffffffffffffff166370a08231306040518263ffffffff1660e01b815260040161112d9190612849565b60206040518083038186803b15801561114557600080fd5b505afa158015611159573d6000803e3d6000fd5b505050506040513d601f19601f8201168201806040525081019061117d919061227a565b9050848110156111c2576040517f08c379a00000000000000000000000000000000000000000000000000000000081526004016111b990612a20565b60405180910390fd5b8173ffffffffffffffffffffffffffffffffffffffff1663a9059cbb33876040518363ffffffff1660e01b81526004016111fd9291906128d3565b602060405180830381600087803b15801561121757600080fd5b505af115801561122b573d6000803e3d6000fd5b505050506040513d601f19601f8201168201806040525081019061124f91906121e7565b61128e576040517f08c379a0000000000000000000000000000000000000000000000000000000008152600401611285906129e0565b60405180910390fd5b3373ffffffffffffffffffffffffffffffffffffffff168673ffffffffffffffffffffffffffffffffffffffff167f6337ed398c0e8467698c581374fdce4db14922df487b5a39483079f5f59b60a4876040516112eb9190612a82565b60405180910390a3505050505050565b600082905060008173ffffffffffffffffffffffffffffffffffffffff166306fdde036040518163ffffffff1660e01b815260040160006040518083038186803b15801561134857600080fd5b505afa15801561135c573d6000803e3d6000fd5b505050506040513d6000823e3d601f19601f820116820180604052508101906113859190612210565b905060008273ffffffffffffffffffffffffffffffffffffffff166395d89b416040518163ffffffff1660e01b815260040160006040518083038186803b1580156113cf57600080fd5b505afa1580156113e3573d6000803e3d6000fd5b505050506040513d6000823e3d601f19601f8201168201806040525081019061140c9190612210565b90506040518060c001604052808673ffffffffffffffffffffffffffffffffffffffff1681526020016001151581526020018581526020013373ffffffffffffffffffffffffffffffffffffffff168152602001838152602001828152506000808773ffffffffffffffffffffffffffffffffffffffff1673ffffffffffffffffffffffffffffffffffffffff16815260200190815260200160002060008201518160000160006101000a81548173ffffffffffffffffffffffffffffffffffffffff021916908373ffffffffffffffffffffffffffffffffffffffff16021790555060208201518160000160146101000a81548160ff0219169083151502179055506040820151816001015560608201518160020160006101000a81548173ffffffffffffffffffffffffffffffffffffffff021916908373ffffffffffffffffffffffffffffffffffffffff160217905550608082015181600301908051906020019061157c929190612023565b5060a0820151816004019080519060200190611599929190612023565b509050506001859080600181540180825580915050600190039060005260206000200160009091909190916101000a81548173ffffffffffffffffffffffffffffffffffffffff021916908373ffffffffffffffffffffffffffffffffffffffff1602179055503373ffffffffffffffffffffffffffffffffffffffff168573ffffffffffffffffffffffffffffffffffffffff167f3a9a79cd15a41f1359a9a9233af1f78982f570cfef886de45a01769c231b4c8486858560405161166193929190612a9d565b60405180910390a35050505050565b606060018054806020026020016040519081016040528092919081815260200182805480156116f457602002820191906000526020600020905b8160009054906101000a900473ffffffffffffffffffffffffffffffffffffffff1673ffffffffffffffffffffffffffffffffffffffff16815260200190600101908083116116aa575b5050505050905090565b60006020528060005260406000206000915090508060000160009054906101000a900473ffffffffffffffffffffffffffffffffffffffff16908060000160149054906101000a900460ff16908060010154908060020160009054906101000a900473ffffffffffffffffffffffffffffffffffffffff169080600301805461178690612cf3565b80601f01602080910402602001604051908101604052809291908181526020018280546117b290612cf3565b80156117ff5780601f106117d4576101008083540402835291602001916117ff565b820191906000526020600020905b8154815290600101906020018083116117e257829003601f168201915b50505050509080600401805461181490612cf3565b80601f016020809104026020016040519081016040528092919081815260200182805461184090612cf3565b801561188d5780601f106118625761010080835404028352916020019161188d565b820191906000526020600020905b81548152906001019060200180831161187057829003601f168201915b5050505050905086565b60606000805b6001805490508110156119c5578373ffffffffffffffffffffffffffffffffffffffff16600080600184815481106118fe577f4e487b7100000000000000000000000000000000000000000000000000000000600052603260045260246000fd5b9060005260206000200160009054906101000a900473ffffffffffffffffffffffffffffffffffffffff1673ffffffffffffffffffffffffffffffffffffffff1673ffffffffffffffffffffffffffffffffffffffff16815260200190815260200160002060020160009054906101000a900473ffffffffffffffffffffffffffffffffffffffff1673ffffffffffffffffffffffffffffffffffffffff1614156119b25781806119ae90612d25565b9250505b80806119bd90612d25565b91505061189d565b5060008167ffffffffffffffff811115611a08577f4e487b7100000000000000000000000000000000000000000000000000000000600052604160045260246000fd5b604051908082528060200260200182016040528015611a4157816020015b611a2e611fbf565b815260200190600190039081611a265790505b5090506000805b600180549050811015611e56578573ffffffffffffffffffffffffffffffffffffffff1660008060018481548110611aa9577f4e487b7100000000000000000000000000000000000000000000000000000000600052603260045260246000fd5b9060005260206000200160009054906101000a900473ffffffffffffffffffffffffffffffffffffffff1673ffffffffffffffffffffffffffffffffffffffff1673ffffffffffffffffffffffffffffffffffffffff16815260200190815260200160002060020160009054906101000a900473ffffffffffffffffffffffffffffffffffffffff1673ffffffffffffffffffffffffffffffffffffffff161415611e435760008060018381548110611b8b577f4e487b7100000000000000000000000000000000000000000000000000000000600052603260045260246000fd5b9060005260206000200160009054906101000a900473ffffffffffffffffffffffffffffffffffffffff1673ffffffffffffffffffffffffffffffffffffffff1673ffffffffffffffffffffffffffffffffffffffff1681526020019081526020016000206040518060c00160405290816000820160009054906101000a900473ffffffffffffffffffffffffffffffffffffffff1673ffffffffffffffffffffffffffffffffffffffff1673ffffffffffffffffffffffffffffffffffffffff1681526020016000820160149054906101000a900460ff16151515158152602001600182015481526020016002820160009054906101000a900473ffffffffffffffffffffffffffffffffffffffff1673ffffffffffffffffffffffffffffffffffffffff1673ffffffffffffffffffffffffffffffffffffffff168152602001600382018054611cdc90612cf3565b80601f0160208091040260200160405190810160405280929190818152602001828054611d0890612cf3565b8015611d555780601f10611d2a57610100808354040283529160200191611d55565b820191906000526020600020905b815481529060010190602001808311611d3857829003601f168201915b50505050508152602001600482018054611d6e90612cf3565b80601f0160208091040260200160405190810160405280929190818152602001828054611d9a90612cf3565b8015611de75780601f10611dbc57610100808354040283529160200191611de7565b820191906000526020600020905b815481529060010190602001808311611dca57829003601f168201915b505050505081525050838381518110611e29577f4e487b7100000000000000000000000000000000000000000000000000000000600052603260045260246000fd5b60200260200101819052508180611e3f90612d25565b9250505b8080611e4e90612d25565b915050611a48565b50819350505050919050565b60008060008373ffffffffffffffffffffffffffffffffffffffff1673ffffffffffffffffffffffffffffffffffffffff16815260200190815260200160002060000160149054906101000a900460ff16611ef2576040517f08c379a0000000000000000000000000000000000000000000000000000000008152600401611ee990612a00565b60405180910390fd5b60008290508073ffffffffffffffffffffffffffffffffffffffff166370a08231306040518263ffffffff1660e01b8152600401611f309190612849565b60206040518083038186803b158015611f4857600080fd5b505afa158015611f5c573d6000803e3d6000fd5b505050506040513d601f19601f82011682018060405250810190611f80919061227a565b915050919050565b600080821480611fb0575082828385611fa19190612c1e565b925082611fae9190612bed565b145b611fb957600080fd5b92915050565b6040518060c00160405280600073ffffffffffffffffffffffffffffffffffffffff16815260200160001515815260200160008152602001600073ffffffffffffffffffffffffffffffffffffffff16815260200160608152602001606081525090565b82805461202f90612cf3565b90600052602060002090601f0160209004810192826120515760008555612098565b82601f1061206a57805160ff1916838001178555612098565b82800160010185558215612098579182015b8281111561209757825182559160200191906001019061207c565b5b5090506120a591906120a9565b5090565b5b808211156120c25760008160009055506001016120aa565b5090565b60006120d96120d484612b13565b612ae2565b9050828152602081018484840111156120f157600080fd5b6120fc848285612cc0565b509392505050565b60008135905061211381612e3b565b92915050565b60008151905061212881612e52565b92915050565b600082601f83011261213f57600080fd5b815161214f8482602086016120c6565b91505092915050565b60008135905061216781612e69565b92915050565b60008151905061217c81612e69565b92915050565b60006020828403121561219457600080fd5b60006121a284828501612104565b91505092915050565b600080604083850312156121be57600080fd5b60006121cc85828601612104565b92505060206121dd85828601612158565b9150509250929050565b6000602082840312156121f957600080fd5b600061220784828501612119565b91505092915050565b60006020828403121561222257600080fd5b600082015167ffffffffffffffff81111561223c57600080fd5b6122488482850161212e565b91505092915050565b60006020828403121561226357600080fd5b600061227184828501612158565b91505092915050565b60006020828403121561228c57600080fd5b600061229a8482850161216d565b91505092915050565b60006122af83836122cf565b60208301905092915050565b60006122c783836126f6565b905092915050565b6122d881612c78565b82525050565b6122e781612c78565b82525050565b60006122f882612b63565b6123028185612b9e565b935061230d83612b43565b8060005b8381101561233e57815161232588826122a3565b975061233083612b84565b925050600181019050612311565b5085935050505092915050565b600061235682612b6e565b6123608185612baf565b93508360208202850161237285612b53565b8060005b858110156123ae578484038952815161238f85826122bb565b945061239a83612b91565b925060208a01995050600181019050612376565b50829750879550505050505092915050565b6123c981612c8a565b82525050565b6123d881612c8a565b82525050565b60006123e982612b79565b6123f38185612bcb565b9350612403818560208601612cc0565b61240c81612e2a565b840191505092915050565b600061242282612b79565b61242c8185612bdc565b935061243c818560208601612cc0565b61244581612e2a565b840191505092915050565b600061245d602783612bdc565b91507f436f6e747261637420646f6573206e6f7420616363657074204574686572206460008301527f69726563746c79000000000000000000000000000000000000000000000000006020830152604082019050919050565b60006124c3600f83612bdc565b91507f5472616e73666572206661696c656400000000000000000000000000000000006000830152602082019050919050565b6000612503601d83612bdc565b91507f416d6f756e74206d7573742062652067726561746572207468616e20300000006000830152602082019050919050565b6000612543602983612bdc565b91507f4661696c656420746f207472616e7366657220457468657220746f20746f6b6560008301527f6e2063726561746f7200000000000000000000000000000000000000000000006020830152604082019050919050565b60006125a9601b83612bdc565b91507f496e636f727265637420457468657220616d6f756e742073656e7400000000006000830152602082019050919050565b60006125e9601583612bdc565b91507f546f6b656e207472616e73666572206661696c656400000000000000000000006000830152602082019050919050565b6000612629601383612bdc565b91507f546f6b656e206e6f7420737570706f72746564000000000000000000000000006000830152602082019050919050565b6000612669601a83612bdc565b91507f496e73756666696369656e7420746f6b656e2062616c616e63650000000000006000830152602082019050919050565b60006126a9601f83612bdc565b91507f43616c6c6572206973206e6f742074686520746f6b656e2063726561746f72006000830152602082019050919050565b60006126e9600083612bc0565b9150600082019050919050565b600060c08301600083015161270e60008601826122cf565b50602083015161272160208601826123c0565b5060408301516127346040860182612816565b50606083015161274760608601826122cf565b506080830151848203608086015261275f82826123de565b91505060a083015184820360a086015261277982826123de565b9150508091505092915050565b600060c08301600083015161279e60008601826122cf565b5060208301516127b160208601826123c0565b5060408301516127c46040860182612816565b5060608301516127d760608601826122cf565b50608083015184820360808601526127ef82826123de565b91505060a083015184820360a086015261280982826123de565b9150508091505092915050565b61281f81612cb6565b82525050565b61282e81612cb6565b82525050565b600061283f826126dc565b9150819050919050565b600060208201905061285e60008301846122de565b92915050565b600060c08201905061287960008301896122de565b61288660208301886123cf565b6128936040830187612825565b6128a060608301866122de565b81810360808301526128b28185612417565b905081810360a08301526128c68184612417565b9050979650505050505050565b60006040820190506128e860008301856122de565b6128f56020830184612825565b9392505050565b6000602082019050818103600083015261291681846122ed565b905092915050565b60006020820190508181036000830152612938818461234b565b905092915050565b6000602082019050818103600083015261295981612450565b9050919050565b60006020820190508181036000830152612979816124b6565b9050919050565b60006020820190508181036000830152612999816124f6565b9050919050565b600060208201905081810360008301526129b981612536565b9050919050565b600060208201905081810360008301526129d98161259c565b9050919050565b600060208201905081810360008301526129f9816125dc565b9050919050565b60006020820190508181036000830152612a198161261c565b9050919050565b60006020820190508181036000830152612a398161265c565b9050919050565b60006020820190508181036000830152612a598161269c565b9050919050565b60006020820190508181036000830152612a7a8184612786565b905092915050565b6000602082019050612a976000830184612825565b92915050565b6000606082019050612ab26000830186612825565b8181036020830152612ac48185612417565b90508181036040830152612ad88184612417565b9050949350505050565b6000604051905081810181811067ffffffffffffffff82111715612b0957612b08612dfb565b5b8060405250919050565b600067ffffffffffffffff821115612b2e57612b2d612dfb565b5b601f19601f8301169050602081019050919050565b6000819050602082019050919050565b6000819050602082019050919050565b600081519050919050565b600081519050919050565b600081519050919050565b6000602082019050919050565b6000602082019050919050565b600082825260208201905092915050565b600082825260208201905092915050565b600081905092915050565b600082825260208201905092915050565b600082825260208201905092915050565b6000612bf882612cb6565b9150612c0383612cb6565b925082612c1357612c12612d9d565b5b828204905092915050565b6000612c2982612cb6565b9150612c3483612cb6565b9250817fffffffffffffffffffffffffffffffffffffffffffffffffffffffffffffffff0483118215151615612c6d57612c6c612d6e565b5b828202905092915050565b6000612c8382612c96565b9050919050565b60008115159050919050565b600073ffffffffffffffffffffffffffffffffffffffff82169050919050565b6000819050919050565b60005b83811015612cde578082015181840152602081019050612cc3565b83811115612ced576000848401525b50505050565b60006002820490506001821680612d0b57607f821691505b60208210811415612d1f57612d1e612dcc565b5b50919050565b6000612d3082612cb6565b91507fffffffffffffffffffffffffffffffffffffffffffffffffffffffffffffffff821415612d6357612d62612d6e565b5b600182019050919050565b7f4e487b7100000000000000000000000000000000000000000000000000000000600052601160045260246000fd5b7f4e487b7100000000000000000000000000000000000000000000000000000000600052601260045260246000fd5b7f4e487b7100000000000000000000000000000000000000000000000000000000600052602260045260246000fd5b7f4e487b7100000000000000000000000000000000000000000000000000000000600052604160045260246000fd5b6000601f19601f8301169050919050565b612e4481612c78565b8114612e4f57600080fd5b50565b612e5b81612c8a565b8114612e6657600080fd5b50565b612e7281612cb6565b8114612e7d57600080fd5b5056fea2646970667358221220b7deadfbb58109cc3d54688d23c78b48e9d1b92776a390c5e0dd85aff62bd78064736f6c63430008000033",
  "linkReferences": {},
  "deployedLinkReferences": {}
}