{
  "contractName": "Faucet",
  "abi": [
    {
      "inputs": [
        {
          "internalType": "uint256",
          "name": "",
          "type": "uint256"
        }
      ],
      "name": "funders",
      "outputs": [
        {
          "internalType": "address",
          "name": "",
          "type": "address"
        }
      ],
      "stateMutability": "view",
      "type": "function"
    },
    {
      "inputs": [
        {
          "internalType": "address",
          "name": "",
          "type": "address"
        }
      ],
      "name": "fundersExist",
      "outputs": [
        {
          "internalType": "bool",
          "name": "",
          "type": "bool"
        }
      ],
      "stateMutability": "view",
      "type": "function"
    },
    {
      "inputs": [],
      "name": "noOfFunders",
      "outputs": [
        {
          "internalType": "uint256",
          "name": "",
          "type": "uint256"
        }
      ],
      "stateMutability": "view",
      "type": "function"
    },
    {
      "stateMutability": "payable",
      "type": "receive"
    },
    {
      "inputs": [],
      "name": "addFunds",
      "outputs": [],
      "stateMutability": "payable",
      "type": "function"
    },
    {
      "inputs": [],
      "name": "getFunders",
      "outputs": [
        {
          "internalType": "address[]",
          "name": "",
          "type": "address[]"
        }
      ],
      "stateMutability": "view",
      "type": "function"
    },
    {
      "inputs": [
        {
          "internalType": "uint8",
          "name": "index",
          "type": "uint8"
        }
      ],
      "name": "getFunder",
      "outputs": [
        {
          "internalType": "address",
          "name": "",
          "type": "address"
        }
      ],
      "stateMutability": "view",
      "type": "function"
    },
    {
      "inputs": [
        {
          "internalType": "uint256",
          "name": "amount",
          "type": "uint256"
        }
      ],
      "name": "withdraw",
      "outputs": [],
      "stateMutability": "nonpayable",
      "type": "function"
    },
    {
      "inputs": [],
      "name": "log",
      "outputs": [
        {
          "internalType": "bytes32",
          "name": "",
          "type": "bytes32"
        }
      ],
      "stateMutability": "pure",
      "type": "function"
    }
  ],
  "bytecode": "0x608060405234801561001057600080fd5b50336000806101000a81548173ffffffffffffffffffffffffffffffffffffffff021916908373ffffffffffffffffffffffffffffffffffffffff160217905550610a0d806100606000396000f3fe60806040526004361061007f5760003560e01c8063a26759cb1161004e578063a26759cb14610147578063b54d273c14610151578063dc0d3dff1461018e578063ea63a044146101cb57610086565b80632e1a7d4d1461008b57806339f3b8bf146100b457806347cac45c146100f157806351973ec91461011c57610086565b3661008657005b600080fd5b34801561009757600080fd5b506100b260048036038101906100ad91906105a3565b6101f6565b005b3480156100c057600080fd5b506100db60048036038101906100d6919061062e565b61028d565b6040516100e89190610676565b60405180910390f35b3480156100fd57600080fd5b506101066102ad565b60405161011391906106a0565b60405180910390f35b34801561012857600080fd5b506101316102b3565b60405161013e91906106d4565b60405180910390f35b61014f6102db565b005b34801561015d57600080fd5b5061017860048036038101906101739190610728565b6103fb565b6040516101859190610764565b60405180910390f35b34801561019a57600080fd5b506101b560048036038101906101b091906105a3565b61043b565b6040516101c29190610764565b60405180910390f35b3480156101d757600080fd5b506101e061046e565b6040516101ed919061083d565b60405180910390f35b80670de0b6b3a7640000811115610242576040517f08c379a0000000000000000000000000000000000000000000000000000000008152600401610239906108e2565b60405180910390fd5b3373ffffffffffffffffffffffffffffffffffffffff166108fc839081150290604051600060405180830381858888f19350505050158015610288573d6000803e3d6000fd5b505050565b60036020528060005260406000206000915054906101000a900460ff1681565b60015481565b60007f5472616e73616374696f6e207375636365737366756c00000000000000000000905090565b6000600160008154809291906102f090610931565b9190505590506000339050600360008273ffffffffffffffffffffffffffffffffffffffff1673ffffffffffffffffffffffffffffffffffffffff16815260200190815260200160002060009054906101000a900460ff166103f7576001600360008373ffffffffffffffffffffffffffffffffffffffff1673ffffffffffffffffffffffffffffffffffffffff16815260200190815260200160002060006101000a81548160ff021916908315150217905550806002600084815260200190815260200160002060006101000a81548173ffffffffffffffffffffffffffffffffffffffff021916908373ffffffffffffffffffffffffffffffffffffffff1602179055505b5050565b6000600260008360ff16815260200190815260200160002060009054906101000a900473ffffffffffffffffffffffffffffffffffffffff169050919050565b60026020528060005260406000206000915054906101000a900473ffffffffffffffffffffffffffffffffffffffff1681565b6060600060015467ffffffffffffffff81111561048e5761048d610979565b5b6040519080825280602002602001820160405280156104bc5781602001602082028036833780820191505090505b50905060005b600154811015610560576002600082815260200190815260200160002060009054906101000a900473ffffffffffffffffffffffffffffffffffffffff16828281518110610513576105126109a8565b5b602002602001019073ffffffffffffffffffffffffffffffffffffffff16908173ffffffffffffffffffffffffffffffffffffffff1681525050808061055890610931565b9150506104c2565b508091505090565b600080fd5b6000819050919050565b6105808161056d565b811461058b57600080fd5b50565b60008135905061059d81610577565b92915050565b6000602082840312156105b9576105b8610568565b5b60006105c78482850161058e565b91505092915050565b600073ffffffffffffffffffffffffffffffffffffffff82169050919050565b60006105fb826105d0565b9050919050565b61060b816105f0565b811461061657600080fd5b50565b60008135905061062881610602565b92915050565b60006020828403121561064457610643610568565b5b600061065284828501610619565b91505092915050565b60008115159050919050565b6106708161065b565b82525050565b600060208201905061068b6000830184610667565b92915050565b61069a8161056d565b82525050565b60006020820190506106b56000830184610691565b92915050565b6000819050919050565b6106ce816106bb565b82525050565b60006020820190506106e960008301846106c5565b92915050565b600060ff82169050919050565b610705816106ef565b811461071057600080fd5b50565b600081359050610722816106fc565b92915050565b60006020828403121561073e5761073d610568565b5b600061074c84828501610713565b91505092915050565b61075e816105f0565b82525050565b60006020820190506107796000830184610755565b92915050565b600081519050919050565b600082825260208201905092915050565b6000819050602082019050919050565b6107b4816105f0565b82525050565b60006107c683836107ab565b60208301905092915050565b6000602082019050919050565b60006107ea8261077f565b6107f4818561078a565b93506107ff8361079b565b8060005b8381101561083057815161081788826107ba565b9750610822836107d2565b925050600181019050610803565b5085935050505092915050565b6000602082019050818103600083015261085781846107df565b905092915050565b600082825260208201905092915050565b7f43616e6e6f74207769746864726177206d6f7265207468616e206f6e6520657460008201527f6865720000000000000000000000000000000000000000000000000000000000602082015250565b60006108cc60238361085f565b91506108d782610870565b604082019050919050565b600060208201905081810360008301526108fb816108bf565b9050919050565b7f4e487b7100000000000000000000000000000000000000000000000000000000600052601160045260246000fd5b600061093c8261056d565b91507fffffffffffffffffffffffffffffffffffffffffffffffffffffffffffffffff820361096e5761096d610902565b5b600182019050919050565b7f4e487b7100000000000000000000000000000000000000000000000000000000600052604160045260246000fd5b7f4e487b7100000000000000000000000000000000000000000000000000000000600052603260045260246000fdfea26469706673582212202d959e69205b79c405229549f4d72a9ab2933d8630f63dba53de5f40723a1b6b64736f6c63430008130033",
  "immutableReferences": {},
  "source": "//SPDX-License-Identifier: MIT\r\npragma solidity >=0.8.19;\r\n\r\nimport './Owner.sol';\r\nimport './Logger.sol';\r\n\r\ncontract Faucet is Owner, Logger{\r\n    uint public noOfFunders;\r\n    mapping(uint=>address) public funders;\r\n    mapping(address=>bool) public fundersExist;\r\n\r\n    modifier withdrawLimit(uint amount){\r\n        require(amount<=1000000000000000000,\"Cannot withdraw more than one ether\");\r\n        _;\r\n    }\r\n\r\n    receive() external payable {}\r\n\r\n    function addFunds() external payable {\r\n        uint index = noOfFunders++;\r\n        address funder = msg.sender;\r\n        if (!fundersExist[funder]){\r\n            fundersExist[funder]=true;\r\n            funders[index]=funder;\r\n        }\r\n    }\r\n\r\n    function getFunders() public view returns (address[] memory){\r\n        address[] memory allFunders = new address[](noOfFunders);\r\n        for (uint i=0; i<noOfFunders; i++){\r\n            allFunders[i] = funders[i];\r\n        }\r\n        return allFunders;\r\n    }\r\n\r\n    function getFunder(uint8 index) external view returns (address){\r\n        return funders[index];\r\n    }\r\n\r\n    function withdraw(uint amount) external withdrawLimit(amount) {\r\n        payable(msg.sender).transfer(amount);\r\n    }\r\n\r\n    \r\n    function log() public pure override returns (bytes32){\r\n        return \"Transaction successful\";\r\n    }\r\n\r\n}",
  "sourcePath": "D:\\Skills\\Repos\\Web3\\faucet\\contracts\\Faucet.sol",
  "compiler": {
    "name": "solc",
    "version": "0.8.19+commit.7dd6d404.Emscripten.clang"
  },
  "schemaVersion": "3.4.13",
  "updatedAt": "2023-04-05T07:51:47.973Z",
  "devdoc": {
    "kind": "dev",
    "methods": {},
    "version": 1
  },
  "userdoc": {
    "kind": "user",
    "methods": {},
    "version": 1
  }
}