{
  "address": "0xBAf63b058dDf10202ba4f69C30Af4f5abdf4D3b3",
  "abi": [
    {
      "inputs": [
        {
          "internalType": "address",
          "name": "priceFeedAddress",
          "type": "address"
        }
      ],
      "stateMutability": "nonpayable",
      "type": "constructor"
    },
    {
      "inputs": [],
      "name": "NotOwner",
      "type": "error"
    },
    {
      "stateMutability": "payable",
      "type": "fallback"
    },
    {
      "inputs": [],
      "name": "MIN_USD",
      "outputs": [
        {
          "internalType": "uint256",
          "name": "",
          "type": "uint256"
        }
      ],
      "stateMutability": "view",
      "type": "function"
    },
    {
      "inputs": [
        {
          "internalType": "address",
          "name": "",
          "type": "address"
        }
      ],
      "name": "addressToAmountFunded",
      "outputs": [
        {
          "internalType": "uint256",
          "name": "",
          "type": "uint256"
        }
      ],
      "stateMutability": "view",
      "type": "function"
    },
    {
      "inputs": [],
      "name": "fund",
      "outputs": [],
      "stateMutability": "payable",
      "type": "function"
    },
    {
      "inputs": [
        {
          "internalType": "uint256",
          "name": "",
          "type": "uint256"
        }
      ],
      "name": "funders",
      "outputs": [
        {
          "internalType": "address",
          "name": "",
          "type": "address"
        }
      ],
      "stateMutability": "view",
      "type": "function"
    },
    {
      "inputs": [],
      "name": "owner",
      "outputs": [
        {
          "internalType": "address",
          "name": "",
          "type": "address"
        }
      ],
      "stateMutability": "view",
      "type": "function"
    },
    {
      "inputs": [],
      "name": "priceFeed",
      "outputs": [
        {
          "internalType": "contract AggregatorV3Interface",
          "name": "",
          "type": "address"
        }
      ],
      "stateMutability": "view",
      "type": "function"
    },
    {
      "inputs": [],
      "name": "withdraw",
      "outputs": [],
      "stateMutability": "nonpayable",
      "type": "function"
    },
    {
      "stateMutability": "payable",
      "type": "receive"
    }
  ],
  "transactionHash": "0x4c8929c918cfbee4f2223195444a46ae75801f4d87b925fa865614f2706d04d9",
  "args": [
    "0x694AA1769357215DE4FAC081bf1f309aDC325306"
  ],
  "numDeployments": 1,
  "solcInputHash": "6b466e747f6935e779cd1801ee79d58a",
  "bytecode": "0x60a060405234801561001057600080fd5b50604051610e9d380380610e9d83398181016040528101906100329190610110565b3373ffffffffffffffffffffffffffffffffffffffff1660808173ffffffffffffffffffffffffffffffffffffffff168152505080600260006101000a81548173ffffffffffffffffffffffffffffffffffffffff021916908373ffffffffffffffffffffffffffffffffffffffff1602179055505061013d565b600080fd5b600073ffffffffffffffffffffffffffffffffffffffff82169050919050565b60006100dd826100b2565b9050919050565b6100ed816100d2565b81146100f857600080fd5b50565b60008151905061010a816100e4565b92915050565b600060208284031215610126576101256100ad565b5b6000610134848285016100fb565b91505092915050565b608051610d3e61015f600039600081816102e101526105600152610d3e6000f3fe6080604052600436106100745760003560e01c8063741bef1a1161004e578063741bef1a1461010c5780638da5cb5b14610137578063b60d428814610162578063dc0d3dff1461016c57610083565b8063213dbea21461008d5780633ccfd60b146100b85780633e47d6f3146100cf57610083565b36610083576100816101a9565b005b61008b6101a9565b005b34801561009957600080fd5b506100a26102d2565b6040516100af919061074e565b60405180910390f35b3480156100c457600080fd5b506100cd6102df565b005b3480156100db57600080fd5b506100f660048036038101906100f191906107cc565b610520565b604051610103919061074e565b60405180910390f35b34801561011857600080fd5b50610121610538565b60405161012e9190610858565b60405180910390f35b34801561014357600080fd5b5061014c61055e565b6040516101599190610882565b60405180910390f35b61016a6101a9565b005b34801561017857600080fd5b50610193600480360381019061018e91906108c9565b610582565b6040516101a09190610882565b60405180910390f35b6802b5e3af16b18800006101e8600260009054906101000a900473ffffffffffffffffffffffffffffffffffffffff16346105c190919063ffffffff16565b1015610229576040517f08c379a000000000000000000000000000000000000000000000000000000000815260040161022090610953565b60405180910390fd5b6000339080600181540180825580915050600190039060005260206000200160009091909190916101000a81548173ffffffffffffffffffffffffffffffffffffffff021916908373ffffffffffffffffffffffffffffffffffffffff16021790555034600160003373ffffffffffffffffffffffffffffffffffffffff1673ffffffffffffffffffffffffffffffffffffffff16815260200190815260200160002081905550565b6802b5e3af16b188000081565b7f000000000000000000000000000000000000000000000000000000000000000073ffffffffffffffffffffffffffffffffffffffff163373ffffffffffffffffffffffffffffffffffffffff1614610364576040517f30cd747100000000000000000000000000000000000000000000000000000000815260040160405180910390fd5b60005b60008054905081101561047057600080828154811061038957610388610973565b5b9060005260206000200160009054906101000a900473ffffffffffffffffffffffffffffffffffffffff1690506000600160008373ffffffffffffffffffffffffffffffffffffffff1673ffffffffffffffffffffffffffffffffffffffff16815260200190815260200160002081905550600067ffffffffffffffff811115610416576104156109a2565b5b6040519080825280602002602001820160405280156104445781602001602082028036833780820191505090505b506000908051906020019061045a92919061068e565b50506001816104699190610a00565b9050610367565b5060003373ffffffffffffffffffffffffffffffffffffffff164760405161049790610a65565b60006040518083038185875af1925050503d80600081146104d4576040519150601f19603f3d011682016040523d82523d6000602084013e6104d9565b606091505b505090508061051d576040517f08c379a000000000000000000000000000000000000000000000000000000000815260040161051490610ac6565b60405180910390fd5b50565b60016020528060005260406000206000915090505481565b600260009054906101000a900473ffffffffffffffffffffffffffffffffffffffff1681565b7f000000000000000000000000000000000000000000000000000000000000000081565b6000818154811061059257600080fd5b906000526020600020016000915054906101000a900473ffffffffffffffffffffffffffffffffffffffff1681565b6000806105cd836105fd565b90506000670de0b6b3a764000085836105e69190610ae6565b6105f09190610b57565b9050809250505092915050565b6000808273ffffffffffffffffffffffffffffffffffffffff1663feaf968c6040518163ffffffff1660e01b815260040160a060405180830381865afa15801561064b573d6000803e3d6000fd5b505050506040513d601f19601f8201168201806040525081019061066f9190610c15565b5050509150506402540be400816106869190610c90565b915050919050565b828054828255906000526020600020908101928215610707579160200282015b828111156107065782518260006101000a81548173ffffffffffffffffffffffffffffffffffffffff021916908373ffffffffffffffffffffffffffffffffffffffff160217905550916020019190600101906106ae565b5b5090506107149190610718565b5090565b5b80821115610731576000816000905550600101610719565b5090565b6000819050919050565b61074881610735565b82525050565b6000602082019050610763600083018461073f565b92915050565b600080fd5b600073ffffffffffffffffffffffffffffffffffffffff82169050919050565b60006107998261076e565b9050919050565b6107a98161078e565b81146107b457600080fd5b50565b6000813590506107c6816107a0565b92915050565b6000602082840312156107e2576107e1610769565b5b60006107f0848285016107b7565b91505092915050565b6000819050919050565b600061081e6108196108148461076e565b6107f9565b61076e565b9050919050565b600061083082610803565b9050919050565b600061084282610825565b9050919050565b61085281610837565b82525050565b600060208201905061086d6000830184610849565b92915050565b61087c8161078e565b82525050565b60006020820190506108976000830184610873565b92915050565b6108a681610735565b81146108b157600080fd5b50565b6000813590506108c38161089d565b92915050565b6000602082840312156108df576108de610769565b5b60006108ed848285016108b4565b91505092915050565b600082825260208201905092915050565b7f41746c6561737420353020555344207265717569726564000000000000000000600082015250565b600061093d6017836108f6565b915061094882610907565b602082019050919050565b6000602082019050818103600083015261096c81610930565b9050919050565b7f4e487b7100000000000000000000000000000000000000000000000000000000600052603260045260246000fd5b7f4e487b7100000000000000000000000000000000000000000000000000000000600052604160045260246000fd5b7f4e487b7100000000000000000000000000000000000000000000000000000000600052601160045260246000fd5b6000610a0b82610735565b9150610a1683610735565b9250828201905080821115610a2e57610a2d6109d1565b5b92915050565b600081905092915050565b50565b6000610a4f600083610a34565b9150610a5a82610a3f565b600082019050919050565b6000610a7082610a42565b9150819050919050565b7f43616c6c206661696c6564000000000000000000000000000000000000000000600082015250565b6000610ab0600b836108f6565b9150610abb82610a7a565b602082019050919050565b60006020820190508181036000830152610adf81610aa3565b9050919050565b6000610af182610735565b9150610afc83610735565b9250828202610b0a81610735565b91508282048414831517610b2157610b206109d1565b5b5092915050565b7f4e487b7100000000000000000000000000000000000000000000000000000000600052601260045260246000fd5b6000610b6282610735565b9150610b6d83610735565b925082610b7d57610b7c610b28565b5b828204905092915050565b600069ffffffffffffffffffff82169050919050565b610ba781610b88565b8114610bb257600080fd5b50565b600081519050610bc481610b9e565b92915050565b6000819050919050565b610bdd81610bca565b8114610be857600080fd5b50565b600081519050610bfa81610bd4565b92915050565b600081519050610c0f8161089d565b92915050565b600080600080600060a08688031215610c3157610c30610769565b5b6000610c3f88828901610bb5565b9550506020610c5088828901610beb565b9450506040610c6188828901610c00565b9350506060610c7288828901610c00565b9250506080610c8388828901610bb5565b9150509295509295909350565b6000610c9b82610bca565b9150610ca683610bca565b9250828202610cb481610bca565b91507f80000000000000000000000000000000000000000000000000000000000000008414600084121615610cec57610ceb6109d1565b5b8282058414831517610d0157610d006109d1565b5b509291505056fea26469706673582212203a38dca294be3087083aada3b79b673b7d2da4fb76ccf891369584b26ce2873f64736f6c63430008180033",
  "devdoc": {
    "kind": "dev",
    "methods": {},
    "version": 1
  },
  "userdoc": {
    "kind": "user",
    "methods": {},
    "version": 1
  },
  "storageLayout": {
    "storage": [
      {
        "astId": 328,
        "contract": "contracts/FundMe.sol:FundMe",
        "label": "funders",
        "offset": 0,
        "slot": "0",
        "type": "t_array(t_address)dyn_storage"
      },
      {
        "astId": 332,
        "contract": "contracts/FundMe.sol:FundMe",
        "label": "addressToAmountFunded",
        "offset": 0,
        "slot": "1",
        "type": "t_mapping(t_address,t_uint256)"
      },
      {
        "astId": 337,
        "contract": "contracts/FundMe.sol:FundMe",
        "label": "priceFeed",
        "offset": 0,
        "slot": "2",
        "type": "t_contract(AggregatorV3Interface)104"
      }
    ],
    "types": {
      "t_address": {
        "encoding": "inplace",
        "label": "address",
        "numberOfBytes": "20"
      },
      "t_array(t_address)dyn_storage": {
        "base": "t_address",
        "encoding": "dynamic_array",
        "label": "address[]",
        "numberOfBytes": "32"
      },
      "t_contract(AggregatorV3Interface)104": {
        "encoding": "inplace",
        "label": "contract AggregatorV3Interface",
        "numberOfBytes": "20"
      },
      "t_mapping(t_address,t_uint256)": {
        "encoding": "mapping",
        "key": "t_address",
        "label": "mapping(address => uint256)",
        "numberOfBytes": "32",
        "value": "t_uint256"
      },
      "t_uint256": {
        "encoding": "inplace",
        "label": "uint256",
        "numberOfBytes": "32"
      }
    }
  }
}