{
  "address": "0x48F2626d8FB1178FFF3644C4BecD599bfC453094",
  "abi": [
    {
      "inputs": [
        {
          "internalType": "address",
          "name": "vrfCoordinator",
          "type": "address"
        },
        {
          "internalType": "uint256",
          "name": "interval",
          "type": "uint256"
        },
        {
          "internalType": "bytes32",
          "name": "gasLane",
          "type": "bytes32"
        },
        {
          "internalType": "uint256",
          "name": "entranceFee",
          "type": "uint256"
        },
        {
          "internalType": "uint64",
          "name": "subscriptionId",
          "type": "uint64"
        },
        {
          "internalType": "uint32",
          "name": "callbackGasLimit",
          "type": "uint32"
        }
      ],
      "stateMutability": "nonpayable",
      "type": "constructor"
    },
    {
      "inputs": [
        {
          "internalType": "address",
          "name": "have",
          "type": "address"
        },
        {
          "internalType": "address",
          "name": "want",
          "type": "address"
        }
      ],
      "name": "OnlyCoordinatorCanFulfill",
      "type": "error"
    },
    {
      "inputs": [],
      "name": "Raffle__NotEnoughETHEntered",
      "type": "error"
    },
    {
      "inputs": [],
      "name": "Raffle__NotOpen",
      "type": "error"
    },
    {
      "inputs": [],
      "name": "Raffle__TransferFailed",
      "type": "error"
    },
    {
      "inputs": [
        {
          "internalType": "uint256",
          "name": "balance",
          "type": "uint256"
        },
        {
          "internalType": "uint256",
          "name": "numPlayers",
          "type": "uint256"
        },
        {
          "internalType": "uint256",
          "name": "raffleState",
          "type": "uint256"
        }
      ],
      "name": "Raffle__UpkeepNotNeeded",
      "type": "error"
    },
    {
      "anonymous": false,
      "inputs": [
        {
          "indexed": true,
          "internalType": "address",
          "name": "player",
          "type": "address"
        }
      ],
      "name": "RaffleEnter",
      "type": "event"
    },
    {
      "anonymous": false,
      "inputs": [
        {
          "indexed": true,
          "internalType": "uint256",
          "name": "requestId",
          "type": "uint256"
        }
      ],
      "name": "RequestedRaffleWinner",
      "type": "event"
    },
    {
      "anonymous": false,
      "inputs": [
        {
          "indexed": true,
          "internalType": "address",
          "name": "winner",
          "type": "address"
        }
      ],
      "name": "WinnerPicked",
      "type": "event"
    },
    {
      "inputs": [
        {
          "internalType": "bytes",
          "name": "",
          "type": "bytes"
        }
      ],
      "name": "checkUpkeep",
      "outputs": [
        {
          "internalType": "bool",
          "name": "upkeepNeeded",
          "type": "bool"
        },
        {
          "internalType": "bytes",
          "name": "",
          "type": "bytes"
        }
      ],
      "stateMutability": "nonpayable",
      "type": "function"
    },
    {
      "inputs": [],
      "name": "enterRaffle",
      "outputs": [],
      "stateMutability": "payable",
      "type": "function"
    },
    {
      "inputs": [],
      "name": "getEntranceFee",
      "outputs": [
        {
          "internalType": "uint256",
          "name": "",
          "type": "uint256"
        }
      ],
      "stateMutability": "view",
      "type": "function"
    },
    {
      "inputs": [],
      "name": "getInterval",
      "outputs": [
        {
          "internalType": "uint256",
          "name": "",
          "type": "uint256"
        }
      ],
      "stateMutability": "view",
      "type": "function"
    },
    {
      "inputs": [],
      "name": "getLatestTimeStamp",
      "outputs": [
        {
          "internalType": "uint256",
          "name": "",
          "type": "uint256"
        }
      ],
      "stateMutability": "view",
      "type": "function"
    },
    {
      "inputs": [],
      "name": "getNumPlayers",
      "outputs": [
        {
          "internalType": "uint256",
          "name": "",
          "type": "uint256"
        }
      ],
      "stateMutability": "view",
      "type": "function"
    },
    {
      "inputs": [],
      "name": "getNumWords",
      "outputs": [
        {
          "internalType": "uint256",
          "name": "",
          "type": "uint256"
        }
      ],
      "stateMutability": "pure",
      "type": "function"
    },
    {
      "inputs": [
        {
          "internalType": "uint256",
          "name": "index",
          "type": "uint256"
        }
      ],
      "name": "getPlayer",
      "outputs": [
        {
          "internalType": "address",
          "name": "",
          "type": "address"
        }
      ],
      "stateMutability": "view",
      "type": "function"
    },
    {
      "inputs": [],
      "name": "getRaffleState",
      "outputs": [
        {
          "internalType": "enum Raffle.RaffleState",
          "name": "",
          "type": "uint8"
        }
      ],
      "stateMutability": "view",
      "type": "function"
    },
    {
      "inputs": [],
      "name": "getRecentWinner",
      "outputs": [
        {
          "internalType": "address",
          "name": "",
          "type": "address"
        }
      ],
      "stateMutability": "view",
      "type": "function"
    },
    {
      "inputs": [],
      "name": "getRequestConfirmations",
      "outputs": [
        {
          "internalType": "uint256",
          "name": "",
          "type": "uint256"
        }
      ],
      "stateMutability": "pure",
      "type": "function"
    },
    {
      "inputs": [
        {
          "internalType": "bytes",
          "name": "",
          "type": "bytes"
        }
      ],
      "name": "performUpkeep",
      "outputs": [],
      "stateMutability": "nonpayable",
      "type": "function"
    },
    {
      "inputs": [
        {
          "internalType": "uint256",
          "name": "requestId",
          "type": "uint256"
        },
        {
          "internalType": "uint256[]",
          "name": "randomWords",
          "type": "uint256[]"
        }
      ],
      "name": "rawFulfillRandomWords",
      "outputs": [],
      "stateMutability": "nonpayable",
      "type": "function"
    }
  ],
  "transactionHash": "0x68c1a523e2d82331faada0d1a978b89f8da8f8f73963c931b491c6d1e1eb18af",
  "args": [
    "0x9ddfaca8183c41ad55329bdeed9f6a8d53168b1b",
    "10000000000000000",
    "0x787d74caea10b2b357790d5b5247c2f63d1d91572a9846f780606e4d953677ae",
    "66845934560283432536180671947727435581582947144976014058069151677014042118510",
    "500000",
    "30"
  ],
  "numDeployments": 1,
  "solcInputHash": "4ec7b43e441a7a2129361faf75526d4f",
  "bytecode": "0x6101606040523480156200001257600080fd5b506040516200182438038062001824833981810160405281019062000038919062000294565b858073ffffffffffffffffffffffffffffffffffffffff1660808173ffffffffffffffffffffffffffffffffffffffff1681525050508167ffffffffffffffff166101008167ffffffffffffffff16815250508260a081815250508573ffffffffffffffffffffffffffffffffffffffff1660c08173ffffffffffffffffffffffffffffffffffffffff16815250508360e081815250508063ffffffff166101208163ffffffff16815250506000600160146101000a81548160ff021916908360018111156200010d576200010c62000330565b5b0217905550426002819055508461014081815250505050505050506200035f565b600080fd5b600073ffffffffffffffffffffffffffffffffffffffff82169050919050565b6000620001608262000133565b9050919050565b620001728162000153565b81146200017e57600080fd5b50565b600081519050620001928162000167565b92915050565b6000819050919050565b620001ad8162000198565b8114620001b957600080fd5b50565b600081519050620001cd81620001a2565b92915050565b6000819050919050565b620001e881620001d3565b8114620001f457600080fd5b50565b6000815190506200020881620001dd565b92915050565b600067ffffffffffffffff82169050919050565b6200022d816200020e565b81146200023957600080fd5b50565b6000815190506200024d8162000222565b92915050565b600063ffffffff82169050919050565b6200026e8162000253565b81146200027a57600080fd5b50565b6000815190506200028e8162000263565b92915050565b60008060008060008060c08789031215620002b457620002b36200012e565b5b6000620002c489828a0162000181565b9650506020620002d789828a01620001bc565b9550506040620002ea89828a01620001f7565b9450506060620002fd89828a01620001bc565b93505060806200031089828a016200023c565b92505060a06200032389828a016200027d565b9150509295509295509295565b7f4e487b7100000000000000000000000000000000000000000000000000000000600052602160045260246000fd5b60805160a05160c05160e051610100516101205161014051611455620003cf600039600081816107f30152610861015260006106a50152600061068201526000610661015260006106250152600081816102fa01526103f7015260008181610337015261038b01526114556000f3fe6080604052600436106100c25760003560e01c8063473f1ddc1161007f5780635f1b0fd8116100595780635f1b0fd8146102255780636e04ff0d1461025057806391ad27b41461028e578063e55ae4e8146102b9576100c2565b8063473f1ddc146101a457806353a2c19a146101cf57806355c9e926146101fa576100c2565b806309bc33a7146100c7578063115cbaf5146100f25780631fe543e31461011d5780632cfcc53914610146578063320229eb146101505780634585e33b1461017b575b600080fd5b3480156100d357600080fd5b506100dc6102f6565b6040516100e99190610bdf565b60405180910390f35b3480156100fe57600080fd5b5061010761031e565b6040516101149190610c71565b60405180910390f35b34801561012957600080fd5b50610144600480360381019061013f9190610e25565b610335565b005b61014e6103f5565b005b34801561015c57600080fd5b50610165610564565b6040516101729190610bdf565b60405180910390f35b34801561018757600080fd5b506101a2600480360381019061019d9190610edc565b61056e565b005b3480156101b057600080fd5b506101b961075e565b6040516101c69190610f6a565b60405180910390f35b3480156101db57600080fd5b506101e4610788565b6040516101f19190610bdf565b60405180910390f35b34801561020657600080fd5b5061020f610797565b60405161021c9190610bdf565b60405180910390f35b34801561023157600080fd5b5061023a6107a3565b6040516102479190610bdf565b60405180910390f35b34801561025c57600080fd5b506102776004803603810190610272919061103a565b6107b0565b60405161028592919061111d565b60405180910390f35b34801561029a57600080fd5b506102a361085d565b6040516102b09190610bdf565b60405180910390f35b3480156102c557600080fd5b506102e060048036038101906102db919061114d565b610885565b6040516102ed9190610f6a565b60405180910390f35b60007f0000000000000000000000000000000000000000000000000000000000000000905090565b6000600160149054906101000a900460ff16905090565b7f000000000000000000000000000000000000000000000000000000000000000073ffffffffffffffffffffffffffffffffffffffff163373ffffffffffffffffffffffffffffffffffffffff16146103e757337f00000000000000000000000000000000000000000000000000000000000000006040517f1cf993f40000000000000000000000000000000000000000000000000000000081526004016103de92919061117a565b60405180910390fd5b6103f182826108cc565b5050565b7f000000000000000000000000000000000000000000000000000000000000000034101561044f576040517fbd4e069500000000000000000000000000000000000000000000000000000000815260040160405180910390fd5b6000600181111561046357610462610bfa565b5b600160149054906101000a900460ff16600181111561048557610484610bfa565b5b146104bc576040517f1425571c00000000000000000000000000000000000000000000000000000000815260040160405180910390fd5b6000339080600181540180825580915050600190039060005260206000200160009091909190916101000a81548173ffffffffffffffffffffffffffffffffffffffff021916908373ffffffffffffffffffffffffffffffffffffffff1602179055503373ffffffffffffffffffffffffffffffffffffffff167f0805e1d667bddb8a95f0f09880cf94f403fb596ce79928d9f29b74203ba284d460405160405180910390a2565b6000600254905090565b6000610588604051806020016040528060008152506107b0565b509050806105f75747600080549050600160149054906101000a900460ff1660018111156105b9576105b8610bfa565b5b6040517f584327aa0000000000000000000000000000000000000000000000000000000081526004016105ee939291906111a3565b60405180910390fd5b60018060146101000a81548160ff0219169083600181111561061c5761061b610bfa565b5b021790555060007f000000000000000000000000000000000000000000000000000000000000000073ffffffffffffffffffffffffffffffffffffffff16635d3b1d307f00000000000000000000000000000000000000000000000000000000000000007f000000000000000000000000000000000000000000000000000000000000000060037f000000000000000000000000000000000000000000000000000000000000000060016040518663ffffffff1660e01b81526004016106e6959493929190611252565b6020604051808303816000875af1158015610705573d6000803e3d6000fd5b505050506040513d601f19601f8201168201806040525081019061072991906112ba565b9050807fcd6e45c8998311cab7e9d4385596cac867e20a0587194b954fa3a731c93ce78b60405160405180910390a250505050565b6000600160009054906101000a900473ffffffffffffffffffffffffffffffffffffffff16905090565b6000600163ffffffff16905090565b60008080549050905090565b6000600361ffff16905090565b600060606000600160149054906101000a900460ff1660018111156107d8576107d7610bfa565b5b600060018111156107ec576107eb610bfa565b5b14905060007f0000000000000000000000000000000000000000000000000000000000000000600254426108209190611316565b119050600080600080549050119050600080471190508380156108405750825b80156108495750815b80156108525750805b955050505050915091565b60007f0000000000000000000000000000000000000000000000000000000000000000905090565b600080828154811061089a5761089961134a565b5b9060005260206000200160009054906101000a900473ffffffffffffffffffffffffffffffffffffffff169050919050565b60008080549050826000815181106108e7576108e661134a565b5b60200260200101516108f991906113a8565b905060008082815481106109105761090f61134a565b5b9060005260206000200160009054906101000a900473ffffffffffffffffffffffffffffffffffffffff16905080600160006101000a81548173ffffffffffffffffffffffffffffffffffffffff021916908373ffffffffffffffffffffffffffffffffffffffff16021790555060008173ffffffffffffffffffffffffffffffffffffffff16476040516109a49061140a565b60006040518083038185875af1925050503d80600081146109e1576040519150601f19603f3d011682016040523d82523d6000602084013e6109e6565b606091505b5050905080610a21576040517fa1d04b3900000000000000000000000000000000000000000000000000000000815260040160405180910390fd5b600067ffffffffffffffff811115610a3c57610a3b610ce2565b5b604051908082528060200260200182016040528015610a6a5781602001602082028036833780820191505090505b5060009080519060200190610a80929190610b1f565b50426002819055506000600160146101000a81548160ff02191690836001811115610aae57610aad610bfa565b5b0217905550600160009054906101000a900473ffffffffffffffffffffffffffffffffffffffff1673ffffffffffffffffffffffffffffffffffffffff167f5b690ec4a06fe979403046eaeea5b3ce38524683c3001f662c8b5a829632f7df60405160405180910390a25050505050565b828054828255906000526020600020908101928215610b98579160200282015b82811115610b975782518260006101000a81548173ffffffffffffffffffffffffffffffffffffffff021916908373ffffffffffffffffffffffffffffffffffffffff16021790555091602001919060010190610b3f565b5b509050610ba59190610ba9565b5090565b5b80821115610bc2576000816000905550600101610baa565b5090565b6000819050919050565b610bd981610bc6565b82525050565b6000602082019050610bf46000830184610bd0565b92915050565b7f4e487b7100000000000000000000000000000000000000000000000000000000600052602160045260246000fd5b60028110610c3a57610c39610bfa565b5b50565b6000819050610c4b82610c29565b919050565b6000610c5b82610c3d565b9050919050565b610c6b81610c50565b82525050565b6000602082019050610c866000830184610c62565b92915050565b6000604051905090565b600080fd5b600080fd5b610ca981610bc6565b8114610cb457600080fd5b50565b600081359050610cc681610ca0565b92915050565b600080fd5b6000601f19601f8301169050919050565b7f4e487b7100000000000000000000000000000000000000000000000000000000600052604160045260246000fd5b610d1a82610cd1565b810181811067ffffffffffffffff82111715610d3957610d38610ce2565b5b80604052505050565b6000610d4c610c8c565b9050610d588282610d11565b919050565b600067ffffffffffffffff821115610d7857610d77610ce2565b5b602082029050602081019050919050565b600080fd5b6000610da1610d9c84610d5d565b610d42565b90508083825260208201905060208402830185811115610dc457610dc3610d89565b5b835b81811015610ded5780610dd98882610cb7565b845260208401935050602081019050610dc6565b5050509392505050565b600082601f830112610e0c57610e0b610ccc565b5b8135610e1c848260208601610d8e565b91505092915050565b60008060408385031215610e3c57610e3b610c96565b5b6000610e4a85828601610cb7565b925050602083013567ffffffffffffffff811115610e6b57610e6a610c9b565b5b610e7785828601610df7565b9150509250929050565b600080fd5b60008083601f840112610e9c57610e9b610ccc565b5b8235905067ffffffffffffffff811115610eb957610eb8610e81565b5b602083019150836001820283011115610ed557610ed4610d89565b5b9250929050565b60008060208385031215610ef357610ef2610c96565b5b600083013567ffffffffffffffff811115610f1157610f10610c9b565b5b610f1d85828601610e86565b92509250509250929050565b600073ffffffffffffffffffffffffffffffffffffffff82169050919050565b6000610f5482610f29565b9050919050565b610f6481610f49565b82525050565b6000602082019050610f7f6000830184610f5b565b92915050565b600080fd5b600067ffffffffffffffff821115610fa557610fa4610ce2565b5b610fae82610cd1565b9050602081019050919050565b82818337600083830152505050565b6000610fdd610fd884610f8a565b610d42565b905082815260208101848484011115610ff957610ff8610f85565b5b611004848285610fbb565b509392505050565b600082601f83011261102157611020610ccc565b5b8135611031848260208601610fca565b91505092915050565b6000602082840312156110505761104f610c96565b5b600082013567ffffffffffffffff81111561106e5761106d610c9b565b5b61107a8482850161100c565b91505092915050565b60008115159050919050565b61109881611083565b82525050565b600081519050919050565b600082825260208201905092915050565b60005b838110156110d85780820151818401526020810190506110bd565b60008484015250505050565b60006110ef8261109e565b6110f981856110a9565b93506111098185602086016110ba565b61111281610cd1565b840191505092915050565b6000604082019050611132600083018561108f565b818103602083015261114481846110e4565b90509392505050565b60006020828403121561116357611162610c96565b5b600061117184828501610cb7565b91505092915050565b600060408201905061118f6000830185610f5b565b61119c6020830184610f5b565b9392505050565b60006060820190506111b86000830186610bd0565b6111c56020830185610bd0565b6111d26040830184610bd0565b949350505050565b6000819050919050565b6111ed816111da565b82525050565b600067ffffffffffffffff82169050919050565b611210816111f3565b82525050565b600061ffff82169050919050565b61122d81611216565b82525050565b600063ffffffff82169050919050565b61124c81611233565b82525050565b600060a08201905061126760008301886111e4565b6112746020830187611207565b6112816040830186611224565b61128e6060830185611243565b61129b6080830184611243565b9695505050505050565b6000815190506112b481610ca0565b92915050565b6000602082840312156112d0576112cf610c96565b5b60006112de848285016112a5565b91505092915050565b7f4e487b7100000000000000000000000000000000000000000000000000000000600052601160045260246000fd5b600061132182610bc6565b915061132c83610bc6565b9250828203905081811115611344576113436112e7565b5b92915050565b7f4e487b7100000000000000000000000000000000000000000000000000000000600052603260045260246000fd5b7f4e487b7100000000000000000000000000000000000000000000000000000000600052601260045260246000fd5b60006113b382610bc6565b91506113be83610bc6565b9250826113ce576113cd611379565b5b828206905092915050565b600081905092915050565b50565b60006113f46000836113d9565b91506113ff826113e4565b600082019050919050565b6000611415826113e7565b915081905091905056fea2646970667358221220fa26cc6c530f079d94af6fca66352df6ab6ea31adae3628d1583cc1538ddb2a364736f6c63430008180033",
  "devdoc": {
    "author": "itsskofficial",
    "details": "This contract uses the Chainlink VRF for random number generation.",
    "kind": "dev",
    "methods": {},
    "title": "A raffle contract that allows players to enter by paying a fee, and then picks a winner randomly.",
    "version": 1
  },
  "userdoc": {
    "kind": "user",
    "methods": {},
    "notice": "This contract relies on the Chainlink VRF Coordinator to get random numbers.",
    "version": 1
  },
  "storageLayout": {
    "storage": [
      {
        "astId": 207,
        "contract": "contracts/Raffle.sol:Raffle",
        "label": "s_players",
        "offset": 0,
        "slot": "0",
        "type": "t_array(t_address_payable)dyn_storage"
      },
      {
        "astId": 224,
        "contract": "contracts/Raffle.sol:Raffle",
        "label": "s_recentWinner",
        "offset": 0,
        "slot": "1",
        "type": "t_address"
      },
      {
        "astId": 227,
        "contract": "contracts/Raffle.sol:Raffle",
        "label": "s_raffleState",
        "offset": 20,
        "slot": "1",
        "type": "t_enum(RaffleState)202"
      },
      {
        "astId": 229,
        "contract": "contracts/Raffle.sol:Raffle",
        "label": "s_lastTimeStamp",
        "offset": 0,
        "slot": "2",
        "type": "t_uint256"
      }
    ],
    "types": {
      "t_address": {
        "encoding": "inplace",
        "label": "address",
        "numberOfBytes": "20"
      },
      "t_address_payable": {
        "encoding": "inplace",
        "label": "address payable",
        "numberOfBytes": "20"
      },
      "t_array(t_address_payable)dyn_storage": {
        "base": "t_address_payable",
        "encoding": "dynamic_array",
        "label": "address payable[]",
        "numberOfBytes": "32"
      },
      "t_enum(RaffleState)202": {
        "encoding": "inplace",
        "label": "enum Raffle.RaffleState",
        "numberOfBytes": "1"
      },
      "t_uint256": {
        "encoding": "inplace",
        "label": "uint256",
        "numberOfBytes": "32"
      }
    }
  }
}